:020000040800F2
:10000000703000202D2F0008DB980008192F000801
:1000100000000000000000000000000000000000E0
:10002000000000000000000000000000093000088F
:100030000000000000000000992F0008115D00087A
:1000400079310008793100087931000879310008E8
:1000500079310008793100087931000879310008D8
:1000600079310008793100087931000879310008C8
:1000700079310008793100087931000879310008B8
:1000800079310008793100087931000879310008A8
:100090007931000879310008793100087931000898
:1000A0007931000879310008793100087931000888
:0C00B0007931000879310008793100082E
:1000BC0002B4714649084900095649008E4402BCF5
:1000CC007047C04602B4714649084900095C4900B2
:1000DC008E4402BC7047C046002934D00123002254
:1000EC0010B488422CD301242407A14204D28142AB
:1000FC0002D209011B01F8E7E400A14204D28142BB
:10010C0002D249005B00F8E7884201D3401A1A4337
:10011C004C08A04202D3001B5C0822438C08A0426E
:10012C0002D3001B9C082243CC08A04202D3001B24
:10013C00DC082243002803D01B0901D00909E3E79E
:10014C00100010BC704701B5002000F05FF802BD34
:10015C000029F8D003B5FFF7C1FF0EBC4243891A42
:10016C001847C046002941D010B404004C40A446A6
:10017C0001230022002900D54942002800D5404225
:10018C0088422CD301242407A14204D2814202D2FA
:10019C0009011B01F8E7E400A14204D2814202D21A
:1001AC0049005B00F8E7884201D3401A1A434C0817
:1001BC00A04202D3001B5C0822438C08A04202D34D
:1001CC00001B9C082243CC08A04202D3001BDC0875
:1001DC002243002803D01B0901D00909E3E71000D2
:1001EC006446002C00D5404210BC704701B500207D
:1001FC0000F00CF802BDC0460029F7D003B5FFF79C
:10020C00B3FF0EBC4243891A1847C0467047C0461C
:10021C001C2101231B04984201D3000C10391B0A2A
:10022C00984201D3000A08391B09984201D30009EE
:10023C00043902A2105C40187047C0460403020245
:10024C0001010101000000000000000041420840D3
:10025C001C2101231B04984201D3000C10391B0AEA
:10026C00984201D3000A08391B09984201D30009AE
:10027C00043902A2105C401A7047C0461B1C1D1D9D
:10028C001E1E1E1E1F1F1F1F1F1F1F1F002B11D1E5
:10029C00002A0FD1002900D1002802D00021C94327
:1002AC00080007B4024802A14018029003BDC046E2
:1002BC005DFFFFFF03B4684601B5029800F039F802
:1002CC00019B9E4602B00CBC7047C046D0400B0050
:1002DC00D1409C46203AD340184352426346934047
:1002EC00184370479140030090409C46203A93403D
:1002FC00194352426346D3401943704710B5002945
:10030C0003D1FFF785FF203002E00800FFF780FFE4
:10031C0010BDC04603000A7801311A700133002A5F
:10032C00F9D170470023C25C0133002AFBD1581E5F
:10033C007047F0B506000F0015001C0085B08B420D
:10034C0063D801D1824260D821002800FFF7D6FF84
:10035C00390000903000FFF7D1FF009B21001B1AE1
:10036C001A0028000393FFF7BDFF00900191B942DA
:10037C0045D801D1B04242D8009B019C01200021FC
:10038C00039AF61AA741FFF7ADFF04000D00039B7B
:10039C00002B2BD0019B009ADB0750081843019BC4
:1003AC005908039B9C46B9422CD801D1B04229D89C
:1003BC0032003B00121A8B41012692185B41002738
:1003CC00B6185F4101235B429C446346002BEAD183
:1003DC0030003900039AFFF779FF039AA4197D4185
:1003EC0006000F00FFF77EFF241A8D410A9B002B9D
:1003FC0001D01E605F602000290005B0F0BD002414
:10040C000025C4E7B6197F41DCE700240025EDE7A1
:10041C0070B5294D03212800284A09F072F9284E9D
:10042C0030000AF035F8002808D1012128001324E7
:10043C00244A09F066F96442200070BD102031692D
:10044C00B3680A6882430A60A022042130001B684A
:10045C0012039847041E06DA1B4A230001212800C8
:10046C0009F056F9E8E700F02BF9041E01DA174AF7
:10047C00F3E700F08BFA041E01D0154AEDE700F00B
:10048C0031F8041E01DA134AE7E700F017FA041EEC
:10049C0001DA114AE1E703212800104A09F031F989
:1004AC00B36810215B693000984700F037F80021E1
:1004BC000B4807F03FFFF3E7A8AD000842B1000876
:1004CC0010AB000870B100088CB10008ADB1000889
:1004DC00D3B10008F7B100081CB2000840B2000804
:1004EC008813000010B5094809F0D2FF031E084814
:1004FC0006D10121074A09F004F91320404210BD2E
:10050C000321054A09F0FDF80020F8E750AB00087C
:10051C0070AD000866B200087FB20008F0B5A7B055
:10052C00444B03939B681B68002B07D00F2502AA32
:10053C00AD18290003989847041E01D027B0F0BDD0
:10054C003D4F2A783B680A2A01D00D2A68D1002B2E
:10055C00E6DD0022394E3A49F254300008320AF0F6
:10056C0060F906AD002808D10121080000F0EAF876
:10057C0034492800FFF7CEFE40E033490922300011
:10058C000AF04FF9011E04D1012000F0DBF82F49CD
:10059C00EFE7082230002E490AF043F9002805D174
:1005AC000121023000F0CEF82A49E2E72A4909225B
:1005BC0030000AF036F9011E04D1022000F0C2F816
:1005CC002649D6E70622300025490AF02AF90028E8
:1005DC001CD1013000F006F9224E002800D0224E2A
:1005EC00022000F0FFF81F4B002800D01E4B009398
:1005FC008021330028001D4A08F040FA2800FFF73C
:10060C0091FEA04204D800233B6089E71849B0E76B
:10061C00295D039B03989B6801345B689847EDE761
:10062C003E2B04DC591C39600449CA5478E73C6001
:10063C0076E7C04650AB00081008002014140020C8
:10064C0097B20008A0B20008ABB20008B5B200081F
:10065C00C1B20008CAB20008D5B20008DFB2000867
:10066C00EBB20008B1B200089DB20008F2B200086B
:10067C0009B300080300F7B519790068DB888268B4
:10068C0094460269DC0715D4B02464032343012784
:10069C003D000A4C16681C408D4001943400AC435C
:1006AC003B4201D034002C43634614601B68019A12
:1006BC009847FEBDD02464036340E8E7FFFFEFFFDB
:1006CC0070B5174809F0E4FE164D002808D1012139
:1006DC0028001324144A09F014F86442200070BD59
:1006EC00124809F0D5FE0028F1D01148FFF7C2FFDF
:1006FC00041E06DA0F4A23000121280009F008F82D
:10070C00ECE70D48FFF7B6FF041E01DA0B4AF2E7DF
:10071C00032128000A4A08F0F4FF0024DEE7C04653
:10072C0030AB0008B8AD00082EB3000810AB0008C1
:10073C0024AE00084AB300081CAE00086CB30008D5
:10074C008EB30008B0B50C0000AF012820D11B48B7
:10075C0008F027FC002819D1194B1C70194B002CE0
:10076C0000D0194B6C4688B06A46184993618023B7
:10077C009B009383164B51611361E62115480023AE
:10078C001032490101F038F80020A546BD46B0BD35
:10079C0002280FD1104808F004FC0028F6D10F4BAA
:1007AC001C70084B002C00D0074B6C4688B06A4676
:1007BC000B49DBE716204042E8E7C04624AE0008B0
:1007CC0055140020B1B200089DB20008A7B3000870
:1007DC0003000001B8AD00081CAE00085414002042
:1007EC00B0B300080300012802D1044B18787047FD
:1007FC000020022BFBD1024BF8E7C0465514002019
:10080C0054140020082390B587B000AF0C00F818E2
:10081C000021102209F0FDFF012321685B423B609F
:10082C0079606379DA0703D5802212060A437A606D
:10083C009A0704D580227968D2050A437A605A0750
:10084C0001D50122BA721B0703D50223BA7A1343CE
:10085C00BB7223793B7209F07CFF0A220023FFF75D
:10086C0015FD786123791A1C082B00D908220C235A
:10087C002100F818D2B2083109F0C2FF1821380053
:10088C0000F068F88AB0216823796A461362052360
:10089C000748D1615061074813619061A42100237E
:1008AC0005481032890100F0A7FFBD4607B090BD86
:1008BC00C6B3000852B4000888AD0008F0B587B084
:1008CC001C4F380009F0E4FD1B4E002809D1012112
:1008DC0030001324194A08F014FF6442200007B0BA
:1008EC00F0BD0A226846164909F08AFF69463800AD
:1008FC0009F0B9F8041E06DA124A2300012130006F
:10090C0008F006FFEAE70025012203AB1A72380053
:10091C002A000D4903955D6003F09AFA0400A84281
:10092C0001DA0A4AE9E703213000094A08F0E9FE36
:10093C002C00D3E770AB000888AD0008DFB30008CB
:10094C0010AE0008F4B300081108000811B4000838
:10095C0031B4000880B500AF88B06A46084BD1614D
:10096C005361084B842193610423136100230648CF
:10097C001032890100F040FFBD46002080BDC0460A
:10098C006DB40008F0B40008F0AD000870B50C4D63
:10099C00032128000B4A08F0B4FE002001F060FE91
:1009AC00041E07D001210300074A280008F0B0FEFE
:1009BC00200070BD03212800044A08F0A2FEF7E7CE
:1009CC00F0AD00088DB40008B7B40008D0B400082E
:1009DC00F0B597B0059304230B921A400B9B0A9227
:1009EC00DA0807231A40013207001C9D03910D926F
:1009FC00820700D0C5E1041D002804D0072909D8BE
:100A0C001C20404254E1039A1A401300A4180822F7
:100A1C00D31A0393059B0426013B069300230993E9
:100A2C000C9304930293013B07930196002F01D082
:100A3C00059B23600D9B002B00DDF1E09D4B059A7F
:100A4C009A4203D39C4B9A4200D2E9E00B99E21BE9
:100A5C009308890700D50DE1049A0F2A00D9BBE051
:100A6C00002F00D10EE104990EAA53540A000799E5
:100A7C0012AB99540C9B01330C93F4E008260196AD
:100A8C00069B01330693069B9878002800D105E15C
:100A9C00029B002B08D12528F2D1079B0133079329
:100AAC00012302930426EAE77A284AD84B280ED869
:100ABC00472846D829282CD825283FD041D820288B
:100ACC00DED0233843425841C3B20293D8E74C38A6
:100ADC002E2836D8FFF7ECFAD43535353535353583
:100AEC00353535353735353535353535356135377A
:100AFC0037616161D437D235D4351837183535792B
:100B0C00E63735353735E600002308930426029383
:100B1C0027E0012213002A38C0B2834067490B42F8
:100B2C00AED1E2211800890508400B4235D11900DD
:100B3C00114002911342A3D0089013E0079B013B94
:100B4C0007930023C1E70022069B08925B78029270
:100B5C006C2B07D10426069B01961B786C2B01D1BC
:100B6C00B6190196013CA0193100FFF7B5FA704394
:100B7C000400002F3BD0019B039ADB1B1B189342F4
:100B8C0000D93DE7089B002B41D1019B042B20D1C0
:100B9C0008CD03600423043415E0072107358D4389
:100BAC0064188C430CCD002F08D00131C91B03985D
:100BBC000919814200D923E72260636000230826CB
:100BCC0002933300083401935AE7029B08930023E5
:100BDC009CE7019B082B01D0162012E70723073551
:100BEC009D430CCD0260436008230834EBE7089B5F
:100BFC00002B0CD1019B042B01D10435CAE7019BBE
:100C0C00082BE9D10735013B9D430835ECE7069BE2
:100C1C00023306930D9B013B0D9308CD059305E71D
:100C2C000B9B9B0722D50121E21B9308802080009F
:100C3C008242D1D2049A0F2ACED8002F1CD004980D
:100C4C00DBB20EAA13549C46079B12AA135400291C
:100C5C0000D10FE780226346524213430EAA13546D
:100C6C00099B01330993049B01330493069B0434C1
:100C7C00013B07E70021D9E7002903D0039B01338F
:100C8C000393F0E7039B023303930A9B002BEAD1F7
:100C9C000598FFF747FB039B1B18F1E78022E31B2A
:100CAC00D200934298D2002F0AD103980838C0186A
:100CBC0017B0F0BD98A900085CC70008DAFF000067
:100CCC009B08302238603B706B469B180A9A1B7845
:100CDC00002A0BD0FB70099BBB70002B1BD100258D
:100CEC000EAE049BAB421BD1E01BE1E77B70F2E73D
:100CFC000EADED560EA9595C002D07DA039E1519A1
:100D0C000140B54200D97BE62170013401330499CE
:100D1C009942EDD1E3E7012200237F20D21BF6E7B5
:100D2C00099B002B02D033787F2B1BD80A9B002BFE
:100D3C001BD012ABEB5C2370002301340193012315
:100D4C00019ADB1B1B199B18039A934200D957E697
:100D5C003378019A237001342000059909F050FD75
:100D6C00019B1C1901350136BBE733789B00FB183E
:100D7C001A6805920A9A05981A60FFF7D3FA431C71
:100D8C00DCE70E203DE6C046F0B59BB000AF3B6201
:100D9C008023FB181B6806001B07DB0F7B61837825
:100DAC00F9623A63BB6300290AD10478BB6BA400D7
:100DBC00E41845780419FB6A9D421BD8A31BFB62FF
:100DCC00F378BB61BB6B002B04D08023FB181B6832
:100DDC00DB0719D4BB69002B47D13B6B002B03D02D
:100DEC0030003A6AF96A9847FB6AFB63BD46F86BB8
:100DFC001BB0F0BD01342000FFF794FAFB6A013000
:100E0C0001332418FB62D6E73378FB619B007B62CD
:100E1C007368BB627B6AF5183B6B002B00D029E131
:100E2C00FB6AFB63BB6BEC180023BB63A54232D09F
:100E3C002B789B009859FFF775FA84217B181B6857
:100E4C000130002B0CD08822BA18BB6B126893426D
:100E5C0006D27A1812685B009852BB6B0133BB63E5
:100E6C00FB6B01351B18FB63E0E78023FB181B6849
:100E7C009B07B2D53378FB619B007B627368BB62C6
:100E8C007B6AF5183B6B002B77D1FB6AFB63BB6B62
:100E9C00EC183B6BBB6380220523BA181268250043
:100EAC0013405A4253410133FB62BB695B00E318A8
:100EBC003B633B6BAB4299D02B787B636B789B008D
:100ECC009C59B84B9C4202D3B74B9C4223D37B69B1
:100EDC00002B33D0796BB86A08F014F900282DD0A8
:100EEC006C468AB06A46B14B5361BB6A93617B6BAB
:100EFC00D36180239B001384AD4B1361922100239B
:100F0C00AC481032890100F077FCA546FB6B023B24
:100F1C00FB630235CDE77B69002B05D0796BB86A92
:100F2C0008F0F0F80028DBD180230122FB181B68A5
:100F3C00134209D1FB6BFA6A9B1AE9E78023022260
:100F4C00FB181B681342E4D02000FFF7EBF9842157
:100F5C007B181B68002B0DD08822BA18BB6B12684B
:100F6C00934207D2791809685B00421C5A52BB6B3A
:100F7C000133BB63FB6B1B18CAE7BB6B1C1E7B638B
:100F8C0015D0802104237A1812681A4014007A6351
:100F9C007A1812681A420AD00023BC6B7B63183390
:100FAC0040229B182900BA6BD81909F029FCBB6B9D
:100FBC00EB18FB60FB63BB695B003B613A69FB6848
:100FCC00944663447B60FB6B7A68934257D17B6B8E
:100FDC00757800215A198023FB181B68D2B29B0725
:100FEC0000D461088020381800680023C00705D49D
:100FFC008033FB181B685B07DB1723407270B370E0
:10100C00F17030003A6A796A3B6B9847F8630028B4
:10101C0000DAEBE6FB6940203370BB6B2100B37048
:10102C00BB693A6AF37018231B18D81975703B6B9F
:10103C009847041E00DAB1E0FB6ABA6BF868991A9B
:10104C007B6A3A6AC91A3B699C46C91A60443B6B75
:10105C009847002800DAA3E00025FB6B1C19231825
:10106C00FB637B6B9D4261D300213A6A08003B6BAA
:10107C009847BBE6BB6B00247B63082390E7FB6BB4
:10108C00484A1B78BB60FB6B5D78AB009B59934265
:10109C0002D3454A93420CD37B69002B30D0B968FC
:1010AC00B86A08F02FF800282AD0FB6B0233FB63D8
:1010BC0089E77B69002B05D0B968B86A08F022F87B
:1010CC000028F2D180230122FB181B6813420AD09E
:1010DC007B6B9B18073240215218796BD219DBB20B
:1010EC0055547B63E1E78023FB181B685B07DCD559
:1010FC00182240215218631CD2191555DCB2D4E7C2
:10110C0080230222FB181B68134203D07B6B063230
:10111C000133E0E7402118225218B968631CD21938
:10112C001155DBB20234E4B2D554BEE74022082399
:10113C009B18DB19EB5C0732BA18137084229B00E6
:10114C009B59BB63BB181C68002C09D08823FB1867
:10115C001B6800249D4203D2BA1812686B00D45A43
:10116C0047230121F8183A6A3B6B9847002817DB94
:10117C00FB6B1B18FB63002C04D1B86BFFF7D2F888
:10118C00013084B221003A6AB86B3B6B9847002857
:10119C0006DBFB6B01351B18FB6362E7F86325E686
:1011AC00F86323E698A900085CC7000815B5000889
:1011BC000400000168AD0008014B18607047C04680
:1011CC0000000020F7B504000D001E00019207F08E
:1011DC00F1F8030009F0D0FB054F32003B500199A8
:1011EC002800A04709F0C8FB385801F0B3FEC046F0
:1011FC0008000000802102200A4B0905DA6B82B03E
:10120C000A43DA63DA6B0A4007490192019A4A6889
:10121C00824300204A60DA6B04490A40DA6302B068
:10122C007047C0460010024000580140FFFFFFF716
:10123C0080230D4A9B00116882B00B43012113607F
:10124C000A4B0B4A1A600B4B1A6C0A431A641B6C40
:10125C00094A0B400193019BC0231168DB000B432F
:10126C00136002B07047C0460020024030000020DE
:10127C000024F4000010024000000140F7B5050006
:10128C000600002D01D13000FEBD2800FEF7DEFF68
:10129C0001238340DA430E4F04019D433B19019314
:1012AC001B7B0092002BECD0E3591B69002B09D15E
:1012BC00009B3C191E40636804221968019808F0D1
:1012CC00E3F9DEE7381998470028DAD1F0E7C04691
:1012DC0000AE0008F0B5002289B00F490F4809F0A4
:1012EC003CFA0024002600270E20C0220C4D03904F
:1012FC000696079728000B4B0B4904940294019413
:10130C000094920006F07CFD0849280009F036F99B
:10131C00200009B0F0BDC0463D130008C8050020F0
:10132C00500100204116000870140020DDB50008A3
:10133C0010B5024806F06EFB10BDC046CC00002074
:10134C00F7B500901F48019108F07DF9061E35D0C5
:10135C0000252800FEBD237B002B11D02368DB6801
:10136C00002B01D02000984763689F7123681B698C
:10137C00002B1BD1636804222000196808F084F943
:10138C0001361034104B9C42E5D3009B002BE0D06F
:10139C00002DDDD02800FFF771FF019B0500002B0D
:1013AC00F6D00021642006F0C5FFF1E72000984735
:1013BC000028DFD03B00B3401D43E1E705000127C7
:1013CC00024CDFE72408002010AE000800AE000835
:1013DC00014B8000C058704740AE0008030010B5A8
:1013EC000800002B05D0044A136000F0ABFC002071
:1013FC0010BD16204042FBE70400002010B5054C40
:10140C002378002B02D1044806F004FB012323703F
:10141C0010BDC04656140020CC00002010B50400AE
:10142C00074808F010F9002C03D00121054809F0F9
:10143C00C6F9054809F09DF9044806F0EBFA10BD11
:10144C001C08002020080020C8050020CC0000202B
:10145C0010B50021014809F0BFF910BD1C0800208F
:10146C0070B5FFF7F5FF0500084C094B9C4200D303
:10147C0070BD63685B79002B06D023685B68002B1A
:10148C0002D02900200098471034EEE700AE000887
:10149C0010AE000810B5044C0449200007F063FF9F
:1014AC00034B1C6010BDC046680000202CAE000829
:1014BC00140800200023FA210C4A10B513700C4AB2
:1014CC00890013600B4A0C481360FFF787FFFFF786
:1014DC00E1FF0A4B0A4918008B4200D310BD1A1ABF
:1014EC005C681211013222711033F5E75714002099
:1014FC001C080020200800205D96000800AE0008A3
:10150C0010AE000810B5044C01000022002320008E
:10151C0007F04AFF10BDC0466800002010B5024815
:10152C0007F0DCFF10BDC0466800002010B5034B6F
:10153C000100186808F023F810BDC04614080020FC
:10154C0010B5024808F054F810BDC04668000020E1
:10155C0070B5204B1878002826D0FFF7DFFF1E4C03
:10156C00051E2CD11D4B1E4C1B68002B11DD09F0E8
:10157C00F0F80A220023FEF789FE22686368801ABD
:10158C009941002903D1FA239B00984201D9FFF716
:10159C0067FF22686368FA200021800012184B4113
:1015AC0022606360FFF7CCFF70BD63685B79002B32
:1015BC0004D02368290020001B6898471034094B7D
:1015CC009C42F2D32800FFF7B1FF0121064809F035
:1015DC00F6F8C7E75614002000AE00081C080020DF
:1015EC00C005002010AE00082008002070B50E4D7C
:1015FC00297800290CD10120FFF7A2FE0B4C0C4BD3
:10160C009C4206D3FFF7A4FF0028FBD101232B70CB
:10161C0070BD63685B79002B03D0236820009B6846
:10162C0098471034EBE7C0465714002000AE000872
:10163C0010AE0008F7B500210800FFF781FE041E6C
:10164C002DD0FA2700267F0009F096F91C4B1D4A75
:10165C001B581360002B06D01B4B1B68092B02DD9B
:10166C001A4806F0D7F900230093002C07D020006D
:10167C00FFF704FE041E02D101277F423E00FFF754
:10168C0067FF0190002808D1009B114D002B13D14E
:10169C000E483A00330006F0EFF9019BE4E701270E
:1016AC007F423E00D0E72B689B69002B03D00022C1
:1016BC002800110098471035064B9D42F3D3E7E7FD
:1016CC00080000001808002020080020CC00002092
:1016DC0000AE000810AE000813B5154807F0B3FFB4
:1016EC00144B1B78002B0AD0EFF3108472B6FFF763
:1016FC002FFF002C02D162B6BFF36F8F13BD0E4BC0
:10170C001B68002BFAD0002809D1002200230B48BB
:10171C000092019300230A4A07F05CF9EEE70928CE
:10172C00ECD1064809F025F8064806F073F9E5E710
:10173C00200800205714002018080020C80500209D
:10174C0010270000CC00002010B5064B04001B68CD
:10175C0098472100A060044807F0A4FEFFF7BCFFE7
:10176C0010BDC0460400002068000020044B054A50
:10177C0000209B1ADB08994201D2C9008858704797
:10178C0000AE000850AD0008F0B55E1C85B0B50089
:10179C0000902800072317309843033080080F006F
:1017AC000192FFF7AFFE02AB04000322581D00218B
:1017BC0009F02FF803AB1E70002C0BD0039B2100FB
:1017CC002361002314312A1F0198C058C8500433D8
:1017DC009A42F9D1E023BA015B001A406D02054B25
:1017EC002A431A4020000023009907F071FF05B02E
:1017FC00F0BDC046C0FF0F00F0B591B004AF3B6028
:10180C000B035B0D0D0078607A613B610C0D002BB6
:10181C0000D173E0BB60002604237E62BE62FE62D0
:10182C0002931833FB1801930A23182200930233F6
:10183C009B18DB193200B9687869FFF7A5FA802389
:10184C00F8601B01984224D37B696C461A795B794A
:10185C008AB01B0213437A69927912041A437B698A
:10186C00DB791B06134304AA9361294B2949D361E5
:10187C0080239B001384284B516113619221330008
:10188C00264810328901FFF7B7FFA546BD460DB0BB
:10189C00F0BDFB6817345B055A0D3A61204A1B0BEF
:1018AC0015401D43FB68E01807239843033080085C
:1018BC00FFF728FE041E15D0030010337B62FB6873
:1018CC00FE62BB62042302931833FB1801930A23B4
:1018DC001821009302335B18124AB9687869DB1936
:1018EC00FFF752FA3B690E4A5B0215401D432A0072
:1018FC0020003B68796807F0EBFEC7E72000072360
:10190C001730984303308008FFF7FCFD0400E9E72B
:10191C00FF070000F2B500080400000190AD0008BC
:10192C00FF01F0FFAB960008F0B587B00E9F0400E6
:10193C00150002910393002F15D00F9B10210593D6
:10194C00009300203B000D9AFFF742F8802306001D
:10195C001B01984208D30221174A1848184B07F06C
:10196C00D7FE07B0F0BD3E00072322000C9C1D40A3
:10197C001A40D2001734AD011543A0197202154359
:10198C0098430C9A0330120580081543FFF7BAFDF3
:10199C00041E09D0002F07D00F9B310000930D9A25
:1019AC003B001030FFF714F82A002000039B02992B
:1019BC0007F08EFED5E7C04631B6000890AD0008A2
:1019CC00FF0700004068002804D0044BC01AC00870
:1019DC0000B2704701204042FBE7C04650AD000802
:1019EC000EB417B5054C05AB04CB010020000193D8
:1019FC0001F0CCFB1EBC08BC03B01847799700085B
:101A0C0010B5CB0604D4890603D50349FFF7E8FFCC
:101A1C0010BD0249FAE7C046BFB20008BEB20008CA
:101A2C00F0B591B0079317AB1B7804000D0006922C
:101A3C000593002B00D1B4E002261B9B1B9A1E4081
:101A4C0001231A400C921B9A07331A4008921B9AD6
:101A5C00F8331A400992002707F014FE0200B8422E
:101A6C0004D020008D49FFF7BBFF0700002E09D0E2
:101A7C0044231B9A1A4235D12A0020008849FFF7CB
:101A8C00AFFF3F180C9B002B0AD0059A854B920098
:101A9C00D258002A00D1844A20008449FFF7A0FFC5
:101AAC00099B002B5AD0089B002B77D11D00069B5D
:101ABC00002B05D01A0020007D49FFF791FF05008F
:101ACC00189B7C48ED19002B00D0BEE01A9B002B14
:101ADC0074D11B9BDB0700D5DAE020001B99FFF7C4
:101AEC008FFFBEE00020744B1E688642C9D0734B3A
:101AFC0028001968FEF7F0FAFA253100FEF728FBEA
:101B0C00AD0069430A9008003100FEF721FB0E91ED
:101B1C00E1210D9009010A98FEF71AFB0B910B9825
:101B2C003C21FEF7D9FAE1210F9009010A98FEF742
:101B3C00D3FA0A900E9831006843FEF7CDFA0D9B4C
:101B4C0002903C210B980193FEF702FB20000091C0
:101B5C000F9B0A9A5A49FFF743FF92E7089B099D8E
:101B6C00002B08D0059A574B920020005649D258AA
:101B7C00FFF736FF0500069B002B05D01A0020004E
:101B8C004B49FFF72DFF2D18079B002B98D01A00FF
:101B9C0020004E49FFF724FF2D1891E700230793EF
:101BAC00E0E7079B4A48012B00D14248189B059D52
:101BBC00002B4AD11A9B002B53D000251A9F102FB3
:101BCC0000D9102720001B99FFF71AFF0026B542F9
:101BDC004CDC199B20001A783E49FFF701FF0126C7
:101BEC0007231E4203D120003B49FFF7F9FEB74201
:101BFC0042D9199B20009A5D3649FFF7F1FE013658
:101C0C00102EEDD1002620003449FFF7E9FE3300F9
:101C1C00199AD25C1300203B5E2B00D92E22200097
:101C2C002F49FFF7DDFE0136102E2AD007231E4266
:101C3C0003D120002849FFF7D3FE3300B742E7D881
:101C4C0020002549FFF7CCFEEDE7189B2200254923
:101C5C0007F024FA1A9B002BB0D1059B002B00D067
:101C6C0037E7200007F076FD11B0F0BD20001A49CF
:101C7C00FFF7B6FE0136AAE720001B49FFF7B0FEBE
:101C8C00BDE7199BDB1919931A9BDB1B1A93E2E72F
:101C9C002000054A0549FFF7A3FE1EE76EB60008B3
:101CAC0072B6000850AE000869B60008ADB3000863
:101CBC0097B60008799700082C0800202808002007
:101CCC007BB6000864AE00089BB60008A1B60008FD
:101CDC009F970008A6B60008AEB60008B0B600087C
:101CEC00B2B6000899310008ACB6000873B5114AB9
:101CFC0004000B000568914200D9130005216846C9
:101D0C000D4A06F0BBFE0600636828000B220B4947
:101D1C005B6807F010FD63683200280069465B6859
:101D2C0007F009FD636828001B2205495B6807F072
:101D3C0002FD73BD0F27000032BE0008D1B60008AB
:101D4C00B5B60008012310B500211C00074A9042CB
:101D5C0007D8074A002900D101231360054B1860EE
:101D6C0010BD210040085B00F1E7C04640420F0067
:101D7C00280800202C08002070B50D00040046181F
:101D8C00B44201D1280070BD217803480134836826
:101D9C005B689847F4E7C04650AB0008F7B5114BA9
:101DAC00114C5B6A0093114B0193019B9C4202D333
:101DBC008620404212E06368009DAB420FD3256938
:101DCC00002D0CD09F7803799C46664643791B0204
:101DDC003343FF2633409F4201D1A847FEBD243434
:101DEC00E3E7C046540800204B0100204B010020C3
:101DFC00F7B504000E001700144D154B9D4202D38D
:101E0C008620404218E0134B69685B6A99421BD3E9
:101E1C00AB69002B18D08A780192227994466046DF
:101E2C00627912020243FF2002400198904204D1D1
:101E3C003A00310020009847FEBD4A79012A03D1AF
:101E4C003A003100200098472435D6E74B0100209A
:101E5C004B01002054080020F8B505000E001700B7
:101E6C00094C0A4B9C4202D3862040420AE063692B
:101E7C00002B01D12434F4E73A00310028009847B4
:101E8C000028F7D1F8BDC0464B0100204B010020C3
:101E9C0010B508220021024808F0BBFC10BDC0465A
:101EAC000F09002030B50A4B0A4CA34201D3002085
:101EBC0030BD1A7F196AD2005218914201D12433D5
:101ECC00F3E708310D1F2D788542F6D10120EFE79D
:101EDC004B0100204B010020F7B56B460579DC1D4A
:101EEC000E0025706B0609D02800FFF7DBFF0028D9
:101EFC0017D00020124B1B78834212D0114F12487E
:101F0C00002E0FD02B000321104A07F0BBFC2078C9
:101F1C0001F0C2FCFB69002B02D02100082098477D
:101F2C000120FEBD2B000321094A07F0ABFC2078F1
:101F3C0001F0D4FCFB69002BF2D021000920EEE764
:101F4C000E09002054080020E8AD000817B700085F
:101F5C002AB7000810B5044C030020000121034AE5
:101F6C0007F090FC002010BDE8AD00083FB700085A
:101F7C0070B5050001F008FD0300040078330ED1A4
:101F8C002B0002210B4A0C4807F07CFC280007F0C0
:101F9C007DFC0A4A002413688343136007E0002881
:101FAC00F4D02B000121064A034807F06BFC2000FB
:101FBC0070BDC0465AB70008E8AD000818090020EB
:101FCC007BB7000810B5084C23785B069B0F0A33CF
:101FDC009B001B59181E05D02000044A0449984741
:101FEC00C043C00F10BDC046540800205C08002040
:101FFC0064080020F0B585B004000191042813D0CA
:10200C00012828D1204B1B78002B24D000F0F2FDA6
:10201C001E4E1F4B9E421BD20025336A0293337F08
:10202C00AB4204D82436F4E7FFF732FFEAE7029B11
:10203C00EF00DF19387901F0A7FC0390387907F02D
:10204C0025FC144A136883431360039B002B0FDA9F
:10205C0000220D4B1A700D4D0D4B9D420BD30E4BA8
:10206C001B6A002B02D020000199984705B0F0BDE7
:10207C000135EDB2D3E7EB68002B03D0210028002B
:10208C00019A98472435E7E70D0900204B01002001
:10209C004B010020180900205408002073B56B4632
:1020AC00040080781870637922791B0213436A4606
:1020BC0053800322E37813406A46137107F0E6FB62
:1020CC00234B06001B68234D03420DD0A47820003F
:1020DC0000F076FD2000FFF74BFF08F049FA0028CE
:1020EC0002D1963008F0DCFA684601F08BFB6B46A7
:1020FC0002001B7878321BD10221174A174807F0CF
:10210C00C1FB6B46187801F00FFC0300783318D133
:10211C006B4602211B78124A104807F0B3FB2B00C8
:10212C000120B933C43518702B6833432B6007E09A
:10213C000C4A0028E5D00948012107F0A3FB002038
:10214C0076BD0028EBD06B46074A1B78F3E7C046F8
:10215C0018090020540800209DB70008E8AD0008BD
:10216C00E4B70008C0B7000804B80008F0B5AE4FDB
:10217C000600BB690C00150085B0002B1FD131780F
:10218C00CB06DB0E012B00D1A5E0022B00D121E107
:10219C00002B2AD12A6870787F293BD9062813D0C6
:1021AC00082832D0002820D1012350701370C33777
:1021BC00397899400B4313700223236002E098474F
:1021CC000028DCD1002012E0F278B0781202104323
:1021DC00120A111FD6B2012907D9072A05D8C1B294
:1021EC000191796A0F78002F03D11620404205B077
:1021FC00F0BD4878B04204D10198984200D122E158
:10220C000133C919EEE70B78D7E7BA373B7813706F
:10221C000123D2E701380828E7D8FDF749FF48E643
:10222C0052E605E6E6E60B00B07801F06BFA002802
:10223C00C8D0DAE7F378B2781B027C6A134332D148
:10224C00FFF726FE3900B378BA310B70FB69002B0F
:10225C00B8D003209847B5E76378042B0CD0052B36
:10226C0014D0022B0AD1F378B27865791B02134390
:10227C009D4203D1012001E0E37801932378E41817
:10228C002378002BE8D10028AFD0D9E7F378B278C7
:10229C001B0213439D42F1D1019B002BEED1200078
:1022AC00FFF7FCFEEAE7FF2500200195E8E7F3784D
:1022BC00B2781B021343012B97D10022C3373A701B
:1022CC0080E7F378B2781B021343012B00D08CE724
:1022DC00C3373B7076E72B6802933B00BA331B780D
:1022EC00002B00D181E7737932791B021343DAB2E8
:1022FC0094467A6A01921578002D00D175E75078D2
:10230C000390022803D11079604500D9A4E052193A
:10231C00F1E7029B1A705A70039B4EE701998A18D9
:10232C000192A3E00B2A00D05FE70024FF25039461
:10233C0002950AE0019B5B78042B14D0052B2ED060
:10234C00019B019A1B78D3180193019B1B78002BDE
:10235C00F0D1FB69002B02D0072003999847002C81
:10236C0000D02FE741E7019BDB780293019B327988
:10237C009D7873791B0213439D42E1D1F378B278B7
:10238C001B021343029A9A42DAD1019B0024039355
:10239C00072DD5D87B19BB331A700134D0E773796C
:1023AC0032791B0213439D42CAD1B378029A9342ED
:1023BC000BD0019B9C78200000F002FC2000FFF762
:1023CC00D7FD43425841C4B2BAE70198FFF766FE05
:1023DC000400B5E773787F2919D9002B00D004E7E6
:1023EC0036792D6873060AD03000FFF75BFD0028A4
:1023FC0000D1FAE6BA373B78002B00D1F5E629007C
:10240C00300007F0B4FA00236B700233D5E6012BD1
:10241C000CD0032B00D0E8E6F378B2781B02134300
:10242C0000D0E2E6012107E054080020F178B378EF
:10243C000902194300D0D8E63000FFF74DFD002803
:10244C0000D0BFE6D1E62960022A00D0DBE6CB78CB
:10245C008A781B021343B0E672787F2900D861E7B3
:10246C00002A00D155E70A2A00D0BEE6019A12785C
:10247C00002A00D1B9E601994978042900D04DE72A
:10248C00019989788B4200D048E70022072B02D8AB
:10249C00FB18BB331A78029B1A70B9E6F7B5050026
:1024AC001F000426009101923B002800019A00991C
:1024BC0001F098FA030004000B330AD12B0002211F
:1024CC00054A064807F0DEF9013E05F0B7FE002E7E
:1024DC00EAD12000FEBDC04625B80008E8AD0008D2
:1024EC0013B5154C237D002B1ED1E26801AB802067
:1024FC00A1680192FFF7D2FF019AA3689B18A36011
:10250C00E3689B1AE3600ED1002A0CD02069E388A3
:10251C00834208DD2300C8331978FDF76DFE0029CE
:10252C0001D10123237513BD002180200B000A006B
:10253C00217501F057FAF6E754080020002330B556
:10254C0085B004000D000193984261D199423BD1B2
:10255C000B000822280002A907F018FA002804DA58
:10256C00802001F099F905B030BD6B462D4C029AD4
:10257C00DB892260039A257562602B4A2561A26073
:10258C006A46127AE56052B2002A10DB802B09D918
:10259C000121264A264807F0B4F8802001F07CF986
:1025AC002800DEE7002B02D02361E360DBE7FFF7B6
:1025BC0009FD0028D4D02269E388934200DD130082
:1025CC00E360FFF78DFFCEE7164D01ABEA68A96813
:1025DC00002A05DC020007F0D9F90028C3DABFE7AE
:1025EC0007F0D4F9002804DA802001F055F9200016
:1025FC00B7E7019AAB689B18AB60EB689B1AEB6072
:10260C00B1D1094BAB60FFF7DDFC0028D9D1A7E7AE
:10261C008028A8D1034BDA68002AD2D11B7D002B6D
:10262C00CFD1A0E7540800208C0800204CB800083B
:10263C00E8AD0008054B064A58629A62054A00202C
:10264C00DA62054A1A63054A9A61704754080020F9
:10265C0079210008A91D0008651E0008FD1D000851
:10266C00F0B5040085B04E4B009300980122524205
:10267C00D31705F00BF94B4B4B4D1B78002B0CD0A3
:10268C0002214A4A4A4807F03CF8782464420098F0
:10269C0005F074F9200005B0F0BD6B6A002B0DD16C
:1026AC0000F0CEF8FFF7C6FF6B6A002B06D10121B4
:1026BC00404A3F4807F025F80124E7E73E482C62E2
:1026CC00E8616E6A01F016F800F030FF041EDEDBE4
:1026DC0000F0B0FA041EDADB7378012B02D1F37927
:1026EC00002B06D10121354A314807F00AF816248F
:1026FC00CCE72A000026C832137002AA10005380BF
:10270C001671167001F07EF80400B042BFDB802712
:10271C0002AB18001F7001F075F80400B042B6DB74
:10272C00274B30001900019307F015F90400B04253
:10273C00ADDB3800019907F00EF90400B042A6DBBE
:10274C00204E214B9E4219D3002001F0EDF8041EBF
:10275C009DDB2E000127C436336880203B43336059
:10276C0001F0E2F8041E00DA91E7802332685B0284
:10277C001343B835002433602F7088E70024376A80
:10278C00337FA34201D82436DBE7E300FB1818792A
:10279C00196807F0E0F800288ED10134E4B2EFE7B5
:1027AC00B80000200C0900205408002065B800086F
:1027BC00E8AD000888B8000801200008ADB8000892
:1027CC00492500084B0100204B010020F0B58BB0CF
:1027DC001122194905A808F013F81022002101A8AC
:1027EC0008F017F8154C12220021200008F011F8FF
:1027FC00102101A802F0AEFE00281ADD082800DA2C
:10280C000820083801AB1B180F2021000022844639
:10281C0014276D46985CED190609AE5D6546284097
:10282C006D46ED19285C01320E7048700231082A91
:10283C00EED120000BB0F0BDE7B800085A14002010
:10284C00F0B58B4B8BB01B7800AF7B61002B03D0AA
:10285C008848BD460BB0F0BD864C874BBB6100234E
:10286C001D00FB603B61FB612378002B07D1834B80
:10287C0002349C42F1D101227D4B1A70E8E760785A
:10288C0005281FD8FDF71EFCAF03F1AF2153202202
:10289C007B69B9180B70402324217B847B697918E0
:1028AC000B70B81800F094FF002809D008237B8423
:1028BC001833F81800F08CFF002801D07B697B845A
:1028CC007B8CE3712378E418CEE7E378002BF9D105
:1028DC00A378002B21D03B690133DBB23B61F1E7DC
:1028EC006A6894421CD024359D42F9D36D4688B059
:1028FC006A46634B9461536103231361C221002325
:10290C00604810324901FEF777FFAD465D48012162
:10291C005D4A06F0F6FE00209BE75C4D5C4BE3E75E
:10292C00AB68002BD7D0200039699847D3E7002D2E
:10293C0057D1584A0121534806F0E3FEE6E7BB683D
:10294C002A6ADB00D3187B60A2781B799A423FD1AC
:10295C0001260322F3B23B60E37813402132BA180C
:10296C001370637922791B0213437B84A3787F2B2A
:10297C0024D93300012210339A401300BA691A4249
:10298C0023D180233A6813432022B91808000B7016
:10299C0000F01EFF002818D12023FB181B787A6842
:1029AC00A37013715BB2002B02DA3E681036F6B2DC
:1029BC000123B340BA691A43BA6183E70123B340D8
:1029CC00BA691A4201D1F3B2DEE70136102EC0D13A
:1029DC00BB680133BB602B7FBA689A42AFD32E4AD7
:1029EC00A8E70023F6E7FB68032B24D1FFF7EEFEE4
:1029FC00B860002812D0FDF795FC061E0ED01028EA
:102A0C0004D00221254A1F4806F07BFE3200A01C90
:102A1C00102E00DD1022B96807F0F2FE2378E218C0
:102A2C005B08E318911E121B032A0CD5FB680133BB
:102A3C00DBB2FB6046E7FB68002BEFD1FB69002B98
:102A4C0008D1174A76E77A69013B4A705A780A70BE
:102A5C000A00E7E7FB69FA69E31A93709BB21B0A59
:102A6C00D37013003A691A71E0E7FC612AE7C0469B
:102A7C0059140020DC000020010001004B01002053
:102A8C00F8B80008E0AD0008DEB900084B010020E2
:102A9C004B01002018B9000859B9000876B9000894
:102AAC00C1B90008094A0023110010B514788442FA
:102ABC0005D15468002C02D09B01C81810BD0133FD
:102ACC004032042BF2D10020F8E7C0462009002048
:102ADC00F0B504002C3C63680600257887B01033F1
:102AEC0027D1E16BE2688B0735D5002A07D1042387
:102AFC00194202D0002363601BE00B43E36305AB78
:102B0C002800A168FFF7CAFC031E08D00121294A3E
:102B1C002948009506F004FE16235B42EBE7059A64
:102B2C00A3689B18A360E3689B1AE36023699B1856
:102B3C002361636810330CD0236967690393A3691D
:102B4C00029307F015FD002828D031001B4807F030
:102B5C0003FD07B0F0BD05AB2800A16800F0AEFF87
:102B6C00031ED3D1059FA368DB19A360E368DB1BAD
:102B7C00E3602369DB192361002FBBD0280006F02A
:102B8C0014FF01003800FDF7E3FA0029B2D1E36825
:102B9C00002BAFD0280000F0D9FFCAE760613000ED
:102BAC00103804F037FF002FD3D02800029A039975
:102BBC00B847CEE70CBA0008F8AD0008F0060020C4
:102BCC0010B5EFF3108472B6FFF76CFF011E09D03D
:102BDC004368103306D18C235B4243602C3104488C
:102BEC0007F0BAFC002C02D162B6BFF36F8F10BD98
:102BFC00F006002070B500250C4CEFF3108672B671
:102C0C006368103307D18C2321005B420848636052
:102C1C002C3107F0A1FC002E02D162B6BFF36F8FEE
:102C2C0001354034042DE8D170BDC0462009002088
:102C3C00F006002070B500250126084C200008493C
:102C4C0007F072FC2000320031001038013507F01B
:102C5C0049FC4034042DF1D1002070BD4C090020FA
:102C6C00DD2A000810B5034A03480021121A06F0A9
:102C7C0020FE10BD70140020500100200648074AA9
:102C8C0010B5121A064906F018FE064A06480749FE
:102C9C00121A06F012FE10BD000000204B0100209D
:102CAC005CC7000800000020000000205CC7000882
:102CBC00F0B585B000AF0C1EB86036D06E468AB049
:102CCC006D4609686268A3682B6205232048A961D8
:102CDC006861EA612B61A1212A001E481032002391
:102CEC0089017A60F860FEF787FDB546E168AD466C
:102CFC00226963692B6205231748A9616861EA613F
:102D0C002B61A12100237A68F8688901FEF774FD14
:102D1C00B546E3690121114AF86806F0F9FCA3698C
:102D2C0001210F4AF86806F0F3FCBB68012B07D1B0
:102D3C00EFF305830B4A0748B968103B06F0E8FC33
:102D4C002100B86804F02CFCBD4605B0F0BDC046AF
:102D5C0036BA0008B0AD000865BA000894BA00088D
:102D6C00A3BA0008D1BA000830BFFDE7F7B50A4B8B
:102D7C000A4D0600EF18CC1B2A00200008490193CD
:102D8C0007F03EFD60190021019A07F042FD380062
:102D9C00083C74660830FEBD040000000000000012
:102DAC0010AE0008054B5A699B689A4205D08023E7
:102DBC00034A5B0551680B4353607047E0130020D6
:102DCC0000ED00E0F0B53E4B8BB05B6800AF7B6074
:102DDC00DB05DB0D04003B6062B6BFF36F8F394E31
:102DEC00130EFF2B08D1F33B1340082B3DD10121CF
:102DFC003000354A06F085FC00252C003B68032B7F
:102E0C0039D1324A0121300006F07BFCA369304AEB
:102E1C00934202D32F4A934205D32F4A934249D36C
:102E2C002E4A934246D2023B1A882D4B9A4241D1EC
:102E3C002368012130002B4A06F06AFC266808231F
:102E4C002022F818210007F0DBFC7B6A002D33D020
:102E5C00DA0502D1244A13437B6208233000F918A7
:102E6C00FFF726FFBD460BB0F0BD01251207C5D5F7
:102E7C000C000025C2E7F822796852001B4B114266
:102E8C0000D01B4B6A468AB07A606A4693613B68F5
:102E9C001849103BD36180239B001384164B51615E
:102EAC00136191210023300010328901FEF7A4FC3C
:102EBC007B689D460026C2E75B0A5B02CCE7C046F6
:102ECC0000ED00E0B0AD000812BB00083DBB0008EF
:102EDC00BC00000890A900080000002000000020A1
:102EEC0002DF000054BB0008FF010000E4BA000838
:102EFC00F9BA000870BB0008040000010821024A5E
:102F0C0053698B435361704700ED00E0EFF3088089
:102F1C00EFF3098101B57246FFF754FF01BDC046BE
:102F2C00094880F3088872B608480949401880F3AC
:102F3C000988EFF314800221084380F31488BFF34F
:102F4C006F8F06F0D0FC000070300020701700204E
:102F5C000008000010B50A4B9B6883420DD1EFF3BB
:102F6C000583002B09D08022064B520559680A4371
:102F7C005A605A6A04490A405A6205F021FA10BD97
:102F8C00E013002000ED00E0FF7FFFFF15498A6889
:102F9C0015481044EFF3098CF0C043464C46554697
:102FAC005E466746F8C072B6104F114E4A698A6089
:102FBC003E60104C141920680F4C2060906E00235A
:102FCC009366002800D162B6074C10191030F8C86F
:102FDC009846A146AA46B346BC462438F0C88CF3A2
:102FEC0009887047E01300203000000004ED00E079
:102FFC000000000864000000200A00200420714634
:10300C00014202D0EFF3098001D1EFF3088081690E
:10301C00023909780229FFD001B5724606F051FC3D
:10302C0001BDC04643B2000605D41F221A4001233D
:10303C009340014A1360704700E100E043B2000680
:10304C0009D41F221A4001239340034AD367BFF3CC
:10305C004F8FBFF36F8F704704E100E030B5FF2551
:10306C0003220B00290040B20240D20091409B0188
:10307C002B40C943934000280ADBC0240A4A80082D
:10308C0080008018A40002590A401343035130BD3C
:10309C000F2210400838054A800880008018C26949
:1030AC0011401943C161F2E700E100E000ED00E0DE
:1030BC00FF22044B9343044A9360BFF34F8FBFF33B
:1030CC006F8F70470000000800ED00E010B5203A4B
:1030DC001360029B01245360039B06499360049B7D
:1030EC00A143D36080235B04D3610023916102650B
:1030FC00836610BDD111000870B50B4B150098609C
:10310C00426E0A4B0E001A602C1C86F309880020B4
:10311C00034B9847201C002100220023014C204720
:10312C000F990008D1110008E0130020200A00209C
:10313C001022014B1A61704700ED00E0F0B5C0247D
:10314C0000220326FF25A40010002F003040C000F1
:10315C008740054993089B005B1819590132B94304
:10316C0019511F2AF0D1F0BD00E100E010B5EFF3CA
:10317C000583054A103BDB00D118496898588847ED
:10318C00FFF710FE10BDC04690AB0008F0B587B03D
:10319C0007000E0014000021102268461D0007F0E5
:1031AC0038FB6A4602239370054B2A0021006846BF
:1031BC0001930497059605F08BFC07B0F0BDC04653
:1031CC002999000810B5024B1B689847002010BDC8
:1031DC00240A0020034B044A1860022391780B4305
:1031EC0093707047240A002010000020072310B5AC
:1031FC000449054A99430548521A05F015FF002069
:10320C0010BDC0467754002000400220280A002040
:10321C00F8B50600002501277378AB4200D8F8BD3D
:10322C0034786419200000F0FDF800280ED020003E
:10323C0000F022F9074AE1008B58002B06D05218F7
:10324C001F2138000C40A040516898470135EDB261
:10325C00E2E7C046340A00200022052010B50C4CD1
:10326C00110020706070FFF7F9FE0022062011009B
:10327C00A070E070FFF7F2FE0C220721054807F062
:10328C00C8FA002207201100FFF7E8FE002010BD4D
:10329C00400000204400002010B50400FF20002C4A
:1032AC0005D02000FCF7B4FF1F23181AC0B2044B42
:1032BC001856044BDA6F1443DC67FFF7B3FE10BDEE
:1032CC004000002004180240024AD36F8343D367A6
:1032DC007047C04604180240020000B508000329DC
:1032EC000AD80E4BFCF7EEFE02090C131968914339
:1032FC00196059689143596000BD19681143F7E78B
:10330C00596811435960196891431960F4E71968B9
:10331C001143196059680A435A60EDE700180240DE
:10332C0070B5FF230D001400002804D0FCF770FFCB
:10333C001F231B1ADBB2094AD8008358AB4203D1B6
:10334C0011184968A14204D0002B04D11550121851
:10335C005460002070BD10204042FBE7340A00206E
:10336C00FF2310B5002804D0FCF752FF1F231B1AB3
:10337C00DBB20021024ADB009950D218516010BD1B
:10338C00340A0020C022C30452031340032210B598
:10339C000724800803431A401B0C9C4099400448A6
:1033AC0092001218106EA0430843106610BDC04660
:1033BC0000180240C022C3045203134003228008A9
:1033CC0003431A40044918329200505807221B0C30
:1033DC009A401040D84070470018024013B50E4C6C
:1033EC00200007F055F8002807D10C4801210C4AA1
:1033FC0006F087F9132040420AE0402300933F3B3C
:10340C000193A3681B68002B03D0694620009847E2
:10341C0016BD5820EFE7C04630AA000878AD00086A
:10342C0090BB00081F2201210240030008009040BD
:10343C0010B502003F2B05D90C480D4A06F068F96F
:10344C00002010BD0B481F2B0AD8C36813409A42AA
:10345C0004D001691140891A4B4259410800F0E728
:10346C00C36A13409A42F9D0016BF3E778AD0008B8
:10347C00AFBB0008001802401F22012102400300CC
:10348C00080010B590403F2B06D90848084A06F0B2
:10349C003FF91620404210BD064A1F2B03D8D060BE
:1034AC0010610020F7E7D0621063FAE778AD0008EE
:1034BC00AFBB0008001802400200802103008A43C1
:1034CC000020072A08DC5AB20448002A00DA044813
:1034DC0024228B435343C0187047C046980D0020DC
:1034EC00B80E002010B5024802F0AAFD10BDC0466F
:1034FC00B40A0020044B020010B51800034906F072
:10350C001DFA1620404210BDD8AD0008EFBB0008D4
:10351C00044B020010B51800034906F00FFA1620F0
:10352C00404210BDD8AD000808BC0008F7B55B4C94
:10353C00200006F0ADFF002807D15949594806F084
:10354C0004FA132464422000FEBDA568AB69002B6D
:10355C0005D15549534806F0F8F90524F2E7534EC6
:10356C0000223100200098470028F2D12B68002B54
:10357C0001D14F49EEE720004E4998470028F8D179
:10358C00EB68002B01D14C49E4E73100200001AA83
:10359C009847061EF7D1019A484B9A4205D04849E4
:1035AC00404806F0CBF98624CCE7464D464BE872F2
:1035BC002B6008232B71063BEB71FF33FF3331007B
:1035CC00424801AA2B8106F01DFD041E07DB019B5E
:1035DC0032001979186801F0DBFF041E05DA2200AD
:1035EC003B49304806F0AAF9ADE7280002F0D8FCB8
:1035FC003849021E0BD1280006F0D3FD3649021EB5
:10360C0005D1280006F0BAFD021E04D03349254826
:10361C0006F094F9A1E7B921402390270400012674
:10362C0089006B52043168542D497F006B52043170
:10363C0068542C496B508323DB00E81800193200C6
:10364C003100243406F04EFFBC42F4D10022082095
:10365C001100FFF703FD0820FFF7E4FC8020224B4C
:10366C004005D96B214A014211D1D96B0143D96371
:10367C00D96B01400191019980215068C900014327
:10368C005160DA6B1A490A40DA6300245BE7802345
:10369C005168DB000B435360F7E7C04630AA0008C3
:1036AC001ABC0008D8AD000839BC0008D4AE00081C
:1036BC005BBC0008CCAE000876BC0008006CDC02D9
:1036CC009ABC0008B40A0020005C0040ACAE0008B4
:1036DC00B6BC0008D4BC0008E8BC0008FCBC000860
:1036EC000404000024070000001002400070004099
:1036FC00FFFFFFEFB822024B920098507047C04674
:10370C00B40A002013B504000848210006F05DFD42
:10371C0003000020834208D00548009301212300B8
:10372C00044A05F0FDFF0520404216BDB40A0020F6
:10373C00D8AD000811BD0008130042B213B5040047
:10374C00002A0BDA802801D1002B0AD01148220064
:10375C00114906F0F3F81620404216BD402B00D953
:10376C0040238022210091430C4A0D48890189187D
:10377C000A18210006F08CFD030000208342ECD0D7
:10378C000448009301212300064A05F0C9FF0520D7
:10379C00E2E7C046D8AD000808BC000824050000CC
:1037AC00B40A002037BD000843B210B50C00002B42
:1037BC0001DB002902D1FFF7ABFE10BD034B01006A
:1037CC00180006F080FD20600020F6E7B40A002007
:1037DC0010B502790378002A02D107495A0604D1A0
:1037EC0078220020134205D00449054806F0ADF8B4
:1037FC000120404210BDC0465DBD00087CBD0008E4
:10380C00D8AD0008F7B50378040018000193FFF752
:10381C0053FE051E10D06188438822798B4229D231
:10382C0080201B4E1B4F00018446F359012A06D100
:10383C004800C01860450ED316204042FEBDC91882
:10384C008142F9D200223000019906F0B8FD62885D
:10385C006A80F3590CE0C9180904CB18300001999F
:10386C0006F0ADFD63885B006B806388F2595B00EA
:10387C009B18F35122796388012A01D15B009BB21A
:10388C002B802379032BD7D800202B71D6E7C04689
:10389C00B40A00202407000037B50400FFF70CFE23
:1038AC00051E13D021000A4806F02DFD00280AD071
:1038BC00084D0090230028000121074A05F030FF35
:1038CC000520404201E001236B713EBD1620F8E754
:1038DC00B40A0020D8AD0008A0BD000873B50600DE
:1038EC00FFF7EAFD041E16D04379002B11D03100EE
:1038FC000A4806F036FD051E09D00948330001219F
:10390C00084A009505F00CFF0520404202E060716A
:10391C00E060002076BD1620F7E7C046B40A002010
:10392C00D8AD0008C7BD000873B50400FFF7C4FD8F
:10393C00051E1FD0104E037902882100300006F0BE
:10394C0055FC00280AD00D4D0090230028000121C1
:10395C000B4A05F0E5FE052040420AE063B2002B5D
:10396C0007DD084BA101C91820002A888919FFF727
:10397C00E3FE76BD1620EFE7B40A0020D8AD0008B0
:10398C00EEBD00082405000037B50400FFF794FDD8
:10399C0000281BD00E4883681B69002B01D1002026
:1039AC003EBD0C4998470228F9D121000A4806F07F
:1039BC0049FC0028F3D0094D009023002800012178
:1039CC00074A05F0ADFE05204042E9E71620FBE76B
:1039DC0030AA0008CCAE0008B40A0020D8AD00080C
:1039EC0011BE0008F0B585B0040016001F0003914D
:1039FC00FFF762FD002802D063B2002B07DB220028
:103A0C0029492A4805F09AFF16256D4248E01430E2
:103A1C00029000220023029804F02EF8051E06D016
:103A2C002A002349214805F089FF0B25EDE706F014
:103A3C009FFD002802D10830FFF700FB802C02D13B
:103A4C00402E00D94026210033001A48039A06F074
:103A5C0042FC011E12D0184A009123000121134888
:103A6C0005F05EFE029803F0D5FF06F081FD0028FC
:103A7C0002D10830FFF7D6FA0525C6E7802C05D110
:103A8C00002E03D002002000FFF756FE06F070FD5A
:103A9C00002802D10820FFF7C5FA002F00D03E60A5
:103AAC00280005B0F0BDC04608BC0008D8AD000821
:103ABC0035BE0008B40A002053BE0008F7B5040058
:103ACC00009117000193FFF7F7FC1A49051E04D06B
:103ADC0063B2C668002B07DA17491848220005F0B4
:103AEC002DFF16204042FEBD009B002B18D0BE427D
:103AFC0000D93E00124BA101C9182B693200C9181C
:103B0C00104B0098C91806F07BFEEB689B1BEB6012
:103B1C002B699B192B61019B002B08D10020E2E73C
:103B2C00002FF8D00849054805F00FFFF3E7019B7B
:103B3C001E60F3E77ABE00088EBE0008D8AD000800
:103B4C0024050000B40A0020AFBE000810B5040024
:103B5C00FFF7B2FC002802D063B2002B03DA20007E
:103B6C00FFF7C8FC10BDC368002B01D00020F9E79B
:103B7C00034BA1010288C9182000FFF7DDFDF5E712
:103B8C00D80F002070B5114C00234022802120005A
:103B9C0006F02CFB0023402219002000902606F092
:103BAC0025FB002576008323DB00E0184019243523
:103BBC0003F030FFB542F6D1B8239B00E358002B3D
:103BCC0002D000210120984770BDC046B40A0020E5
:103BDC00B82210B5044B92009B58002B02D0002148
:103BEC000520984710BDC046B40A0020B82210B575
:103BFC00044B92009B58002B02D0002106209847C2
:103C0C0010BDC046B40A0020BC23082270B5104C6D
:103C1C000025104E9B00E25032000433E5500E4B51
:103C2C0003CB03C2BB239B00E358AB420ED029004D
:103C3C0028009847094BE25AAA4207D0063BE35C9E
:103C4C007F2B03D831002800FFF776FD70BDC046EE
:103C5C00B40A0020D80F0020500D0020A202000052
:103C6C00F0B591B0029316AB069204CB03911B886E
:103C7C0004920193029B5C889B880134E418029B9C
:103C8C00DB88E418002A00D1D4E0FA23019A9B00C7
:103C9C009A4200D3CEE083680FA99B6A984700280C
:103CAC0000D0C9E0019B002B0CD1644B049A9A42C2
:103CBC0040D8634B93429B414A229343614A9446BA
:103CCC00634401930F9B0499180061430D93FCF717
:103CDC0003FA069B1B89984200D21800049B05909E
:103CEC0043430C93584B0A93029B059A1B899342AE
:103CFC0022DA0A98039B039ADB8892885B08191CCA
:103D0C00934200D9111C039B8AB21980069B1B8815
:103D1C009A4206D9029B19880B1C914200D9131C9C
:103D2C009BB2039A1380484B984201D186204042A3
:103D3C0011B0F0BD454BC4E70C990D98FCF708FA8F
:103D4C000990002930D1029BFA219B8889000793A6
:103D5C00029B5B880B930B9A079B9C18069BA4B247
:103D6C009B880893069B5D886B469E8C019B5843F1
:103D7C00FCF7B2F9069B301ADA8880B21700904231
:103D8C0006D9029BDB881F1C834200D9071CBFB2DB
:103D9C00731EDB1B9BB29C420FD2029B361B013E57
:103DAC00DB88B7B2BB4212D2049A059B944601330E
:103DBC0005930C9B63440C9396E708994C19A4B299
:103DCC009C4217D9361B013EB7B2BA42ECD86308F5
:103DDC009D4206D26A46958D0B9A9A4200D91D1CBB
:103DEC00ADB2661B079BB6B2B34205D2E51A1E00F4
:103DFC00ADB204E01C00EAE7089BB342F6D8FA2304
:103E0C00601C9B0058430999FCF766F9019A030062
:103E1C00101A9A4200D2981A0A9B9842C4D2039B59
:103E2C00059A5D809E80DF801A81002800D161E7B1
:103E3C000A90B9E716207AE7052078E700350C00E0
:103E4C0020A107006B030000FFFFFF7FEE020000C4
:103E5C00F7B5846800AFA446002928D0002B26D0E3
:103E6C001C7A1E685D68E40725D58024A405A6424B
:103E7C0001D2A54229D31D21082316486A468EB0CB
:103E8C007A606A461362936280239B00124C1386FD
:103E9C00124B54619061D1615662D562136100235B
:103EAC000F4810491032FDF7A7FC7B689D46162081
:103EBC004042BD46FEBD80242401A64201D2A5424B
:103ECC0003D30B2103230848D8E76446A469A04711
:103EDC00EFE7C046CCBE00080BBF0008080000018D
:103EEC0050AD000840440000D5BE000873B5140066
:103EFC001D0082683032064E83683A33B44204D8CF
:103F0C0001950094FFF7ACFE76BD16204042FBE70E
:103F1C0040420F0073B514001D0082684832064EF3
:103F2C0083685233B44204D801950094FFF798FE8D
:103F3C0076BD16204042FBE700127A0037B5436885
:103F4C000D009B691B689847041E06D001212B00AD
:103F5C00034A0448009405F0E3FB20003EBDC04634
:103F6C0058BF000858AD000837B543680D009B6971
:103F7C005B689847041E06D001212B00034A0448B5
:103F8C00009405F0CDFB20003EBDC0467BBF000871
:103F9C0058AD0008F0B59BB003934368050002913F
:103FAC0001920021482208A8DF6906F032FC2800A3
:103FBC00019905AAFFF7C2FF002818D17F22059BA3
:103FCC00134214D03F2248241B0A1A405443029B2C
:103FDC0000921C19A4B206AA08232100280005F09F
:103FEC006BFD021E05D03C493C4805F07BFD1BB027
:103FFC00F0BD04AB9B7B1B071B0FDAB2944608AADF
:10400C00137104ABDB7A990603D502215079014375
:10401C00517106AA9279910604D5042108A8467913
:10402C0031434171D20604D5082208A948790243CC
:10403C004A715AB2002A04DA102208A948790243BC
:10404C004A7106A9CE7908AA7606760E5B061FD5AC
:10405C00069BDB00DB080893012351790B4353715A
:10406C0062461F4B9B5C402B2FD808AA52799207B3
:10407C0013D4002B11D003220333083493432800AC
:10408C000AAAA1B205F018FD021E06D01549ABE72D
:10409C004B88DB045B0D0893E2E708A94B79F6002B
:1040AC00DB0710D5BB689E1933687268002B01D0F2
:1040BC00280098472800009A0399FFF755FF00281D
:1040CC0000D174E793E77B68EDE70121064A0348CA
:1040DC0005F004FDEEE7C0469FBF000858AD000890
:1040EC0024C40008C6BF0008EBBF0008F7B50500E4
:1040FC00066901225242D3171036300005F0F9FC44
:10410C001821280001AAFFF719FF041E28D110233B
:10411C00019A18219A4328000192FFF725FF041EEB
:10412C001ED101F0BFFE1821070001AA2800FFF7DD
:10413C0005FF041E14D10822019B134210D001F07C
:10414C00B1FE0E4BC01B98420FD91022019B1821B7
:10415C001A4328000192FFF707FF041E00D10B3C05
:10416C00300005F0CAFC2000FEBD1821280001AA71
:10417C00FFF7E4FE0028DED00400F1E700A86100A0
:10418C0070B50469050023790E00002B25D110347D
:10419C0001225242D317200005F0ABFC7F21F3889B
:1041AC003288013B0B40FF21013A52061A43B38877
:1041BC000902013B1B020B401A4333890849013B9E
:1041CC001B040B4028001C211A43FFF7CDFE0500F1
:1041DC00200005F092FC280070BD10256D42FAE716
:1041EC000000FF01F0B5036987B001931B7905004E
:1041FC004768002B00D06AE0386800280ED083682E
:10420C00019A1B6811689847041E07D02200314997
:10421C00314805F067FC200007B0F0BD2E69012283
:10422C005242D3171036300005F063FC18212800D9
:10423C0005AAFFF783FE041E0ED0300005F05DFCCE
:10424C0025482200254905F04DFC38680028E2D0AD
:10425C0083685B689847DEE70123059A18219A4327
:10426C0028000592FFF780FE041EE6D106F071FAD5
:10427C00029003912800182105AAFFF75FFE041E87
:10428C00DBD10122059B134208D1300005F035FC2F
:10429C00002CD5D10123019A1371BCE706F059FA11
:1042AC00029A039B801A994100290DDC03D1FA2351
:1042BC009B00984208D81821280005AAFFF73EFE5B
:1042CC000028DED00400E0E70B246442DDE778240C
:1042DC006442A0E7FCBF000858AD000826C00008E7
:1042EC00F0B506000D00076985B0072907D92A002B
:1042FC002A492B4805F0F6FB8624644242E03B79C0
:10430C00002B48D13B0010330193019801225242FB
:10431C00D31705F0EEFB1821300002AAFFF70EFEB2
:10432C00041E2CD11021300003AAFFF707FE041E37
:10433C0025D18022029BE90727D51A43102302922C
:10434C00039A13430393029B20211A008A43A80764
:10435C0001D50A001A436B071AD5C0239B001A43D8
:10436C00182130000292FFF7FFFD041E07D1102127
:10437C003000039AFFF7F8FD041E00D13D60019850
:10438C0005F0BBFB200005B0F0BD93430293DAE7C8
:10439C00044B1A40E4E71024AFE7C04649C00008BC
:1043AC0058AD0008FFFCFFFFF7B5502101AA04002F
:1043BC004768FFF7C3FD002835D199260125019BDD
:1043CC001A00324033422ED050212000FFF7CCFD92
:1043DC00002828D1019B2B4205D0A823A422200021
:1043EC00F98EFFF7D7FD019BDB0605D5B823B42268
:1043FC002000398FFFF7CEFD019B1B0704D5290048
:10440C00094A0A4805F06AFB019B1B0604D52900E2
:10441C00074A064805F062FB5021200001AAFFF76D
:10442C008DFD0028CBD0F7BD62C0000858AD000848
:10443C0078C00008F0B5040003698BB002935021DA
:10444C00200006AAFFF77AFD002805D106995F4BDC
:10445C000A001A40194201D10BB0F0BD50212000C6
:10446C00FFF782FD0028F7D1E022069B920413424D
:10447C0037D026692000B36807AA0093F36803932A
:10448C006368DF6904ABDD1D290005F0DCFB002847
:10449C0027D12B780193009B002B05D02000039B88
:1044AC00079A0199009DA847019B032B19D1012262
:1044BC00D42120005242FFF757FD051E11D13B7B42
:1044CC009D4254D31821200008AAFFF737FD00287D
:1044DC0007D10123089A18219A4320000892FFF76C
:1044EC0043FD8022069B5201134222D06768FB6970
:1044FC00009323690193F421200007AAFFF71EFD06
:10450C00002816D13F23079D1D4212D01F232D0AD0
:10451C00B98F1D40EB00C91808AE320008232000EB
:10452C0089B205F0C9FA021E36D02949294805F08E
:10453C00D9FA069B1B0408D50121274A254805F00A
:10454C00CDFA0298243003F065FA069B9B0004D543
:10455C000121224A1F4805F0C1FA069B9B0300D497
:10456C006DE701211E4A1B4805F0B8FA67E73A6867
:10457C00E90052181368002B0CD0002010603A6828
:10458C00200052187221526849429847300024305A
:10459C0003F040FA013592E72A00F8212000F67961
:1045AC00FFF7E2FC051EC4D1009BF6001B689B19AB
:1045BC005A681E68039218600198243003F02AFA96
:1045CC0029002000039AB04795E7C0460090823B33
:1045DC008EC0000858AD0008B4C00008C9C000085F
:1045EC00E4C00008F0B58FB00993436807920693B6
:1045FC00039004910C79DF690669784A231C0F2C0F
:10460C0000D90F23DBB2D35C002108220CA8059340
:10461C0006F0FFF801214025049BAC465A7953085B
:10462C000B40900128405B01034308A8C37480230E
:10463C00D008313D084025405B4200012B43034329
:10464C0090080840400103436046834308A88375E3
:10465C000F2A06D96249634805F044FA862464425D
:10466C00B3E033685B0707D40C231A4204D05E4ACC
:10467C005C4805F033FAF1E7059B402B09D9402340
:10468C0001210093594A5748059B05F049F8162417
:10469C00E5E7520707D50F2C08D955492200514898
:1046AC0005F020FAF3E75349082CF7D83379002B9F
:1046BC0000D18DE0442103980BAAFFF73FFC041EA8
:1046CC0000D082E00B9B1B0600D583E03300243323
:1046DC000893079A099B089803F0CEF9041E00D0A2
:1046EC007AE0343601225242D3173000079605F097
:1046FC0000FA3B7BA34241DC0126764204990CAACA
:10470C00D671049B49791B68C9073FD50C9ADB000D
:10471C00520FDB08520713430C9348257543069B35
:10472C00ADB2D98F0398691889B208230CAA05F089
:10473C00C9F93149041E16D1049B5B799B072DD412
:10474C00059B002B2AD0032206990333C98F934370
:10475C000831049A69180398083289B205F0B2F945
:10476C00041E1BD0254922001E4805F0BBF90798F2
:10477C0005F0C3F9089803F04DF926E03A68E1001A
:10478C008A582600002AB9D00134B3E751881C4856
:10479C005B05DB0C01400B435380BEE73B68149A6E
:1047AC00F5005A513B68159A5B195A600122D021C9
:1047BC00B2400398FFF7D8FB041E03D000223B68DD
:1047CC005A51D4E7079805F098F920000FB0F0BDC6
:1047DC00732444E7722442E70B2440E724C4000806
:1047EC00FFC0000858AD000822C100084DC10008E8
:1047FC007DC100089FC10008C1C10008EBC10008C1
:10480C0003E0FFFFF0B587B0039242680291D769CD
:10481C0001921A682A4912040A40802100245B681C
:10482C0006695B0509065B0D0B431A4310360592AE
:10483C00050001225242D3173000009605F059F9B9
:10484C007B7BA3420ADC1C2502211E4A1E4805F074
:10485C0045F9009805F051F96D422DE07A68E600B3
:10486C00B258002A0DD00134EBE7009805F045F959
:10487C007B68029A25009A517B68039A9B195A60AF
:10488C001AE00123382004AAD17923400133814353
:10489C00DB000B43D371019AA300518E2800C91879
:1048AC0089B2042305AA05F00DF9051EDDD02A00F6
:1048BC000649054805F016F9280007B0F0BDC046BA
:1048CC000000FF073FC2000858AD000813C20008E3
:1048DC00F0B51D00436887B00291039201932A7AC8
:1048EC000400DE69012A06D93A493B4805F0FAF87A
:1048FC00862464426AE0002A43D004AB076905228F
:10490C000021D81C05F085FF2A68049BD2005B0FA0
:10491C00D2085B0713430493802380216A68002527
:10492C00D200D2081B061343059A89050A4013438B
:10493C0010370593380001225242D317009705F027
:10494C00D8F8B37B9D4209DB0221244A224805F0AA
:10495C00C5F8009805F0D1F81C24CAE7B268EF003E
:10496C00BA58002A14D00135ECE7009805F0C5F8C8
:10497C00B368029A2C00DA51B368039ADB195A60B7
:10498C0022E02B00039A0299FFF73CFF04001DE084
:10499C0001231F2104AAD2782B4001330A405B016A
:1049AC00134304AAD370019B2000998E0823C919C4
:1049BC0089B205F087F8041ED7D0220008490648B2
:1049CC0005F090F8002C01DB737BE418200007B095
:1049DC00F0BDC0465FC2000858AD000883C2000895
:1049EC0013C20008F7B5436805000C1EDE690769A1
:1049FC00019305DA22002049204805F073F8F7BD31
:104A0C00103701225242D317380005F072F8727B2E
:104A1C0094421ADBB37B1849A21A934228DD002179
:104A2C00B368D2009950B36828009B185960019B59
:104A3C00998E891889B2082205F04AF81049021E8D
:104A4C0016D1380005F059F8D9E700227368E10057
:104A5C005A507368A4005B185A60019B0432598E3B
:104A6C002800091989B205F033F8021EE9D005496E
:104A7C00024805F037F8E4E7A3C2000858AD000877
:104A8C00BEC20008EAC20008F8B50469456823797B
:104A9C000600EF69002B46D0FA220023920005F0A5
:104AAC0030F8002807D00121204A214805F016F8DB
:104ABC0005256D420CE0286800280BD083685B68E4
:104ACC009847051E06D02A001A49194805F00AF81D
:104ADC002800F8BD0025300005F0F6F825713B7B69
:104AEC009D420BD3103401225242D317200005F003
:104AFC0000F8200005F001F80025E9E73A68E90024
:104B0C0052181368002B0CD0002010603A6830004B
:104B1C00521873215268494298472000243002F001
:104B2C0079FF0135DBE77825C3E7C04616C30008DB
:104B3C0058AD000830C30008F0B589B04568066967
:104B4C0004000A22002102A8EF6905F062FE0A2285
:104B5C00002105A805F05DFE3000103005F0BBFC0F
:104B6C003000343005F0B7FC397B30000A002430BB
:104B7C0005F0B8FC286800280AD005F089FC00284C
:104B8C0006D101214F4A504804F0A8FF132013E02E
:104B9C002000FFF7ABFA4D4A002808D1FA22002377
:104BAC002000920004F0ADFF002808D0484A464887
:104BBC00012104F093FF0520404209B0F0BD200014
:104BCC0005F082F81821200001AAFFF7B7F9002898
:104BDC00F3D1019A3F4B18211A4020000192FFF7A4
:104BEC00C3F90028E9D11021200001AAFFF7A6F98A
:104BFC000028E2D11021019A20008A430192FFF78C
:104C0C00B3F90028D9D18021200001AAFFF796F929
:104C1C000028D2D12B22019B80211A432000019223
:104C2C00FFF7A2F90028C8D1EA682B8A200002A954
:104C3C00FFF75CF9284A1630B9D06A696B8A2000F4
:104C4C0005A9FFF767F9254A1630B0D0200002A954
:104C5C0004F009FF021E04D021491B4804F042FF56
:104C6C0094E705A9200004F010FF1E49021EF4D1A0
:104C7C001D4A542120000192FFF776F900289CD19F
:104C8C009922582120000192FFF76EF9002800D0DC
:104C9C0093E703225C2120000192FFF765F90028BD
:104CAC0000D08AE70122E021524220000192FFF756
:104CBC005BF9002800D080E701002A6C200004F08A
:104CCC0007FF7AE775C3000858AD00085BC30008FE
:104CDC0016C300085BFCFFFF8FC30008B1C30008BC
:104CEC00DDC30008FBC3000899908203D02843D091
:104CFC002BD8A82842D011D884281CD00300883B7C
:104D0C009BB21C2B20D801229A4026490A4212D170
:104D1C00082B35D01C2B17D1902015E0B82831D09A
:104D2C000BD8B42830D00FD803000422AC3B9343EB
:104D3C009BB2002B08D11C4806E0CC2826D003D807
:104D4C00BC28F8D0C828F6D07047E02820D007D867
:104D5C00D8281FD0DC281FD0D428F5D1D020F3E7D9
:104D6C00F4281BD004D8E4281AD0F028E3D0EBE7C1
:104D7C00F828E9D1E820E7E7CC20E5E79420E3E741
:104D8C008420E1E79C20DFE79820DDE7C820DBE703
:104D9C00DC20D9E7D420D7E7D820D5E7E420D3E727
:104DAC00E020D1E701001101FFFF000070B543685E
:104DBC0008005E6C0D001400FFF798FF1D4B984225
:104DCC0034D03368C0180368582D1FD019D804226A
:104DDC009543502D17D1FF22F820990192051140CF
:104DEC00C002DA00024011430122FE201A40114396
:104DFC0040019A00024011431C225B0013400B43FC
:104E0C0001E0802D0FD02360002070BD02211A001C
:104E1C000A400B4200D0D022DB0701D42260F3E71A
:104E2C000D231343EFE73F221340ECE7862040426B
:104E3C00EBE7C046FFFF000070B5436808005D6CEF
:104E4C000E001400FFF752FF1C4B984232D0582E24
:104E5C0021D019D804239E43502E17D1FF22F821BC
:104E6C00A309120413400902E2080A401343012269
:104E7C00FE2122401343C900A2080A4013430E220C
:104E8C00640814401C4301E0802E0FD02B68C0181E
:104E9C000460002070BDD02323405A1E93410D2284
:104EAC0022405C000123002AECD1EFE73F23234092
:104EBC00034CE7E786204042ECE7C046FFFF0000CA
:104ECC0000001C08F0B5436885B05B6C0500002140
:104EDC00586903AA009305F095F8041E07DB039BA1
:104EEC0000221979186800F053FB041E08DA344AC2
:104EFC0023000121334804F00BFC200005B0F0BD69
:104F0C006B685E6C304F380005F0C2FA002851D047
:104F1C00BB68F1680193B368012B13D9019B08316D
:104F2C009B69002B0BD0002238009847041E09DA2D
:104F3C000121264A234804F0E4FB254AD8E75824EB
:104F4C006442F5E7019BF1681B68002B35D03800F3
:104F5C009847041EF1DB337E002B06D0280004F0AA
:104F6C00B3FE337E1B4A5B081360280004F0ACFED2
:104F7C008021280003AAFEF7E1FF041EBDD1039B8C
:104F8C00154A80211A4328000392FEF7EDFF041EF8
:104F9C00B3D18022C02128005204FEF7E5FF041E85
:104FAC00ABD12800FFF7C8FD041EA6D1009B1B69DE
:104FBC009847A2E713246442BFE75824FBE7C04696
:104FCC003DC4000860AD000830AA00085BC40008AE
:104FDC0085C400080065004000001C0873B54368D8
:104FEC000C005E6C1A4D280005F052FA00282CD0EB
:104FFC00AB68B268F168DB68012A17D90831002B5D
:10500C0007D1144A1448012104F07BFB05204042CF
:10501C000BE0280001AA98470028F2DB0F4B0198FF
:10502C001A68002A0CD12060002076BD002B01D11B
:10503C000B4AE7E7280001AA98470028EEDAF7E7C1
:10504C0019684900FBF748F8EDE71320DFE7C04685
:10505C0030AA0008A6C4000860AD00080065004036
:10506C00D2C40008024B18684005C00F7047C046F8
:10507C00001002400B8813B50C481B051A0D1B18A9
:10508C001B0D0C2B0ED80A4C486813191A680243D6
:10509C0000201A600B881B051B0D1B191B68019344
:1050AC00019B16BD86204042FBE7C0460000C0FCB9
:1050BC00001002400B8809481B051A0D1B181B0D0C
:1050CC000C2B07D80020064B4968D3181A688A4362
:1050DC001A60704786204042FBE7C0460000C0FCC7
:1050EC000010024070B508881F4B00050D0014001D
:1050FC001B68000D0C2818D8002801D1863870BD0B
:10510C0002380A2809D8FAF7DDFF260622242626BB
:10511C0008081D1D1D00FA23DB018022236029686D
:10512C005201914219D20020E9E7104A801800057B
:10513C00000D0C2803D80E4AC240D207EDD48620AD
:10514C004042DCE700F02AF9C3005B08E5E7094BB5
:10515C00E3E7094BE1E70023DFE7090B1800013116
:10516C00FAF7BAFF2060DEE730000020CC0F000019
:10517C00111100000024F400006CDC020C2806D88D
:10518C00044BC3400020DB0700D4863870478620D0
:10519C004042FBE73A1F000070B508880C00000580
:1051AC00000DFFF7EBFF00281EDB6368FF2B1AD006
:1051BC0001225802800F013082401F2099B21B0C33
:1051CC000340013A9A40094E89190D6895430D60C8
:1051DC00636899B21A0E1B0C03409A40130089198C
:1051EC000C6823430B60002070BDC04600100240C9
:1051FC000B880A4A1B05180D9B1810B51B0D0C2BA0
:10520C0008D8074BC0180368486898434342584174
:10521C00013010BDFFF7B2FFF8E7C0460000C0FC3C
:10522C0000100240F7B5524F00F0D0F8380004F0EF
:10523C00A7FD00F049FE1F214E4C4F4AA3683D00CC
:10524C001B051B0F9B009B580B40D840136801900B
:10525C000B401D41A84202D2280002F069F9FFF769
:10526C0001FF012808D0802322685B0013432360D0
:10527C00FFF7F8FE0128FBD12368404A1340236056
:10528C000123226E134323660223226E1A42FCD0A2
:10529C0080232268DB031343236080231B042268D2
:1052AC001A42FCD03822A3681340102B18D1FFF7F8
:1052BC00D9FE012808D0802322685B0013432360A9
:1052CC00FFF7D0FE0128FBD10722A3689343A3600C
:1052DC003823A2681A42FCD1A368294A1340A36060
:1052EC002368284A134080222360920423681342C7
:1052FC00FCD1254B2549186880260840802189025D
:10530C00014319608021186849020143196019682A
:10531C001F48760401400A431A601A6832431A6027
:10532C0000F040F823681E43802326609B0422680B
:10533C001A42FCD0A368124A1340A3600723A26848
:10534C009A43053B13433822A360A3681340102BE8
:10535C00FBD1019BAB4202D3280002F0E9F80D4BC4
:10536C000D4A1F60A36800201340A360FEBDC04619
:10537C000090D00300100240C4B00008FFC7FFFF2C
:10538C00FFF0FFFFFFFFFFFE0C100240FFFFC1FF0D
:10539C00FFFFFFF130000020FF8FFFFF0048704738
:1053AC000024F400064B074AD9681140064A0A4308
:1053BC00DA608022D96852050A43DA607047C04629
:1053CC00001002408C80FF1F0208002080210F4B30
:1053DC004905DA6B82B00A43DA63DA6B0A40802142
:1053EC000192019ADA6B49020A43DA634022DB6BC1
:1053FC000B400093009B064B19680A431A6020224D
:10540C0019680A431A6002B07047C0460010024087
:10541C00006C004010B5084805F03AF8002808D098
:10542C00064C2000FDF7D6FE2000FBF7C5FE002041
:10543C0010BD13204042FBE750AB00084D54000850
:10544C0070B50400074D0A2804D1AB680D21280063
:10545C005B689847AB6828005B68E1B2984720000E
:10546C0070BDC04650AB0008F7B547681E00036915
:10547C00B868009201930C0004F05BFA8023009A48
:10548C0005009B039A4215D12000BD68FDF792FFE1
:10549C0085420DD12100280004F04BFA0400FDF7E1
:1054AC0013FF2000FDF75CFF00212000FDF714FF27
:1054BC000020FEBD8023009ADB039A4224D0802377
:1054CC00DB049E421CD0C023DB049E421AD08023F6
:1054DC0016209B049E4218D1022628000D49019AE1
:1054EC00FDF71EFF002812D12000B968FDF74AFF16
:1054FC0028003100FDF7F0FE2800FDF7CDFED7E7C0
:10550C000126EAE70326E8E786204042D1E710208F
:10551C00FBE7C046B59F000870B5036904005860EE
:10552C000B4D280004F0B4FF00280FD0AB68616865
:10553C001B680C31002B04D028009847002803DC92
:10554C0070BD58204042FBE70020F9E71320F9E733
:10555C0030AA00081FB50B4B0C001B681BBA01933B
:10556C00094B1B681BBA0293084B1B681BBA0393AD
:10557C000C2900D90C24220001A905F041F92000C6
:10558C0004B010BD9875FF1F9475FF1F9075FF1F19
:10559C00F7B504000025C90043180193019B9C42F8
:1055AC0001D1002035E01F271023226817401A4232
:1055BC0017D1202563681D43F821530949000B407E
:1055CC00E2395209FF390A401A4300921B09192B80
:1055DC0020D8114A9B009E58002E0AD1132040421D
:1055EC0017E0102F03D0112FE6D16568E4E73025C2
:1055FC00E2E7300004F04CFF0028EFD00F230099B5
:10560C002A00194030003B0004F0E7FC0834002865
:10561C00C4DAFEBD1620E2E70CB0000870B50369D1
:10562C00C0225B680C001B68D2000B6080214368B1
:10563C0005001B68C9001B68134002228B4204D072
:10564C001C4A9B185A425341DAB2C0218020227165
:10565C006B6889011B6800225B6840010B40834228
:10566C0006D002328B4203D0013A002B00D002321A
:10567C0062716B681B6818681968C023DB001940DD
:10568C000D4B184004F008FDC022A0716B6892000D
:10569C001B689B681340094A9B185A425341DBB262
:1056AC00E3716A6812689268520400D503230020E3
:1056BC00E37170BD00FAFFFF0010001000FDFFFF4A
:1056CC00F0B5436885B000AF05001E6802697960CB
:1056DC00002939D01068D9688368DB68002B0DD09D
:1056EC000C22BA189847041E0BDA01211A4A1B48DF
:1056FC0004F007F82000BD4605B0F0BD5824644204
:10570C00F3E73368164A7968134033607B685808AE
:10571C00FB68C018FAF7E0FC0F2818D86C468AB062
:10572C002B686A4693617B680E49D36180239B008A
:10573C0013840D4B516113619121002307481032E2
:10574C008901FCF759F8A54616246442D2E780B2C9
:10575C000024F060CEE7C04689C50008D0AD000833
:10576C00FF7FFFFFB7C5000804000001F7B50C0070
:10577C00036941685D682379012B13D09A1E564248
:10578C007241920200926679022E0ED8494F760031
:10579C00F75BA679022E0BD0042E34D05E1EB341DB
:1057AC001B0308E0C022D200ECE78027BF01F0E722
:1057BC005E4273411B07E67901960026B446019EB2
:1057CC00012E02D1C026B600B4460968A5421DD1EF
:1057DC000C68394E009A3440224313430B604B68DB
:1057EC00364A13403B434B60436835491A6893680B
:1057FC000B4061460B4393602968FFF761FF00285B
:10580C0000DD0020FEBD80235B01D4E7C0220E68C2
:10581C00D2001640009AB24205D00E68294A1640B2
:10582C00009A16430E60C0264268B60111684A6899
:10583C003240974204D04A68204E32403A434A6084
:10584C004268214E11680A683240934204D00A68BB
:10585C001E4E324013430B60C021436889001A6806
:10586C0093680B409C4505D0936815490B406146E5
:10587C000B43936080224368D2011B6899681142E4
:10588C0006D0019A032A09D09A6811490A4004E00B
:10589C000199032902D199680A439A6021682B68FF
:1058AC009942AED0FFF70CFF0028ABDB23682B60CE
:1058BC00A7E7C0463CB10008FFE9FFEFFFCFFFFFB1
:1058CC00FFFCFFFFFFF9FFFF00100010FFEFFFEFE1
:1058DC00FFBFFFFFF0B5060045680469744885B04A
:1058EC0000AF206004F0D4FD002806D1714A0121DC
:1058FC00714803F006FF13240BE02068E968836805
:10590C001B68002B07D101216C4A6B4803F0F9FE90
:10591C00582464420AE09847041E0BD10C23002142
:10592C00286AFA1804F06EFB041E0BDA2000BD4640
:10593C0005B0F0BD0121614A5F4803F0E2FE002C86
:10594C00F4DBEBE7FB68002219791868FFF720FEFF
:10595C00041EEBDB0122756833692C685B687B6085
:10596C00236893432360686804F092FD002801D1FA
:10597C00534ABCE76868A9688368DB68002B00D0D1
:10598C009847EFF31082012383F310880C212368CE
:10599C000B43236082F3108830007968FFF7E6FE32
:1059AC00002801DA1624B4E72B7D002B03D0082342
:1059BC00A2681343A3606B7D002B04D08022636824
:1059CC00120213436360AB7D002B04D0802263680A
:1059DC00520213436360EB7D002B04D0802263687A
:1059EC009202134363602B7E002B49D0354B9C42B3
:1059FC0029D0354B9C4226D0344B9C4223D0344B7F
:105A0C009C4220D0334B9C421DD0334B9C421AD02D
:105A1C00324B9C4217D0324B9C4214D06C4688B00F
:105A2C006A463368936180239B002E4993832E4BE7
:105A3C0051611361E22100231F4810324901FBF729
:105A4C00DBFEA546AEE773681A6880239168DB011C
:105A5C000B43936022686B7E24495B050A40134319
:105A6C0023602268AB7E22491B040A401343236047
:105A7C00EB7E002B04D08022A36812021343A36098
:105A8C002B7F002B04D0802322689B0513432360BB
:105A9C00012322681343236080239B03E2691A428B
:105AAC00FCD08023DB03E2691A42FCD000243DE7E2
:105ABC0030AA00081ABC0008D0AD0008CEC50008FA
:105ACC00EEC500080038014000440040004800408A
