:020000040800F2
:10000000782E0020DD1F0008997F0008C91F000816
:1000100000000000000000000000000000000000E0
:10002000000000000000000000000000B9200008EF
:100030000000000000000000492000088947000877
:1000400009220008092200080922000809220008E4
:1000500009220008092200080922000809220008D4
:1000600009220008092200080922000809220008C4
:1000700009220008092200080922000809220008B4
:1000800009220008092200080922000809220008A4
:100090000922000809220008092200080922000894
:1000A0000922000809220008092200080922000884
:0C00B000092200080922000809220008AB
:1000BC0002B4714649084900095649008E4402BCF5
:1000CC007047C04602B4714649084900095C4900B2
:1000DC008E4402BC7047C046002934D00123002254
:1000EC0010B488422CD301242407A14204D28142AB
:1000FC0002D209011B01F8E7E400A14204D28142BB
:10010C0002D249005B00F8E7884201D3401A1A4337
:10011C004C08A04202D3001B5C0822438C08A0426E
:10012C0002D3001B9C082243CC08A04202D3001B24
:10013C00DC082243002803D01B0901D00909E3E79E
:10014C00100010BC704701B5002000F00BF802BD88
:10015C000029F8D003B5FFF7C1FF0EBC4243891A42
:10016C001847C0467047C0461C2101231B04984207
:10017C0001D3000C10391B0A984201D3000A08392C
:10018C001B09984201D30009043902A2105C4018E3
:10019C007047C04604030202010101010000000087
:1001AC0000000000414208401C2101231B0498421E
:1001BC0001D3000C10391B0A984201D3000A0839EC
:1001CC001B09984201D30009043902A2105C401AA1
:1001DC007047C0461B1C1D1D1E1E1E1E1F1F1F1FF1
:1001EC001F1F1F1F002B11D1002A0FD1002900D176
:1001FC00002802D00021C943080007B4024802A11C
:10020C004018029003BDC0465DFFFFFF03B4684673
:10021C0001B5029800F039F8019B9E4602B00CBC67
:10022C007047C046D0400B00D1409C46203AD3408A
:10023C001843524263469340184370479140030061
:10024C0090409C46203A9340194352426346D34017
:10025C001943704710B5002903D1FFF785FF2030F3
:10026C0002E00800FFF780FF10BDC04603000A78CB
:10027C0001311A700133002AF9D170470023C25C96
:10028C000133002AFBD1581E7047F0B506000F0051
:10029C0015001C0085B08B4263D801D1824260D816
:1002AC0021002800FFF7D6FF390000903000FFF73F
:1002BC00D1FF009B21001B1A1A0028000393FFF7A3
:1002CC00BDFF00900191B94245D801D1B04242D84E
:1002DC00009B019C01200021039AF61AA741FFF70D
:1002EC00ADFF04000D00039B002B2BD0019B009A4B
:1002FC00DB0750081843019B5908039B9C46B942E5
:10030C002CD801D1B04229D832003B00121A8B41B3
:10031C00012692185B410027B6185F4101235B420E
:10032C009C446346002BEAD130003900039AFFF756
:10033C0079FF039AA4197D4106000F00FFF77EFF99
:10034C00241A8D410A9B002B01D01E605F60200097
:10035C00290005B0F0BD00240025C4E7B6197F4183
:10036C00DCE700240025EDE770B5294D03212800BA
:10037C00284A07F03CFD284E300008F0A6FA002869
:10038C0008D1012128001324244A07F030FD6442CF
:10039C00200070BD10203169B3680A6882430A607E
:1003AC00A022042130001B6812039847041E06DAB1
:1003BC001B4A23000121280007F020FDE8E700F08C
:1003CC002BF9041E01DA174AF3E707F073F9041E40
:1003DC0001D0154AEDE700F031F8041E01DA134A9A
:1003EC00E7E700F025FA041E01DA114AE1E70321E0
:1003FC002800104A07F0FBFCB36810215B69300041
:10040C00984700F037F800210B4806F005FBF3E79E
:10041C0068910008D2940008D08E0008009500085E
:10042C001C9500083D950008639500088795000809
:10043C00AC950008D09500088813000010B5094849
:10044C0008F043FA031E084806D10121074A07F0B9
:10045C00CEFC1320404210BD0321054A07F0C7FC17
:10046C000020F8E7108F000830910008F69500087E
:10047C000F960008F0B5A7B0444B03939B681B681C
:10048C00002B07D00F2502AAAD1829000398984716
:10049C00041E01D027B0F0BD3D4F2A783B680A2AD4
:1004AC0001D00D2A68D1002BE6DD0022394E3A49E5
:1004BC00F2543000083208F093FB06AD002808D146
:1004CC000121080000F0EAF834492800FFF7CEFEBD
:1004DC0040E033490922300008F082FB011E04D1B0
:1004EC00012000F0DBF82F49EFE7082230002E49FD
:1004FC0008F076FB002805D10121023000F0CEF87F
:10050C002A49E2E72A490922300008F069FB011E5A
:10051C0004D1022000F0C2F82649D6E706223000AA
:10052C00254908F05DFB00281CD1013000F006F9CC
:10053C00224E002800D0224E022000F0FFF81F4B64
:10054C00002800D01E4B00938021330028001D4A48
:10055C0006F006FE2800FFF791FEA04204D8002307
:10056C003B6089E71849B0E7295D039B03989B68BA
:10057C0001345B689847EDE73E2B04DC591C39606D
:10058C000449CA5478E73C6076E7C046108F0008EF
:10059C00F80700203012002027960008309600083B
:1005AC003B96000845960008519600085A9600089C
:1005BC00659600086F9600087B9600084196000827
:1005CC002D96000882960008999600080300F7B54E
:1005DC0019790068DB88826894460269DC0715D4B7
:1005EC00B0246403234301273D000A4C16681C40C9
:1005FC008D4001943400AC433B4201D034002C4379
:10060C00634614601B68019A9847FEBDD0246403AE
:10061C006340E8E7FFFFEFFF70B5174808F055F9A6
:10062C00164D002808D1012128001324144A07F084
:10063C00DEFB6442200070BD124808F046F9002829
:10064C00F1D01148FFF7C2FF041E06DA0F4A23004F
:10065C000121280007F0D2FBECE70D48FFF7B6FFAD
:10066C00041E01DA0B4AF2E7032128000A4A07F0BC
:10067C00BEFB0024DEE7C046F08E0008789100082F
:10068C00BE960008D08E0008E4910008DA960008A7
:10069C00DC910008FC9600081E970008B0B50C0011
:1006AC0000AF012820D11B4806F0EDFF002819D11E
:1006BC00194B1C70194B002C00D0194B6C4688B090
:1006CC006A461849936180239B009383164B5161B2
:1006DC001361E621154800231032490101F048F856
:1006EC000020A546BD46B0BD02280FD1104806F02B
:1006FC00CAFF0028F6D10F4B1C70084B002C00D001
:10070C00074B6C4688B06A460B49DBE71620404223
:10071C00E8E7C046E49100087112002041960008F9
:10072C002D96000837970008030000017891000807
:10073C00DC9100087012002040970008030001288B
:10074C0002D1044B187870470020022BFBD1024BCE
:10075C00F8E7C0467112002070120020082390B5F3
:10076C0087B000AF0C00F8180021102208F030FA06
:10077C00012321685B423B6079606379DA0703D51A
:10078C00802212060A437A609A0704D5802279687F
:10079C00D2050A437A605A0701D50222BA721A07A7
:1007AC0003D50422B97A0A43BA72DB0603D50823AF
:1007BC00BA7A1343BB7223793B7208F0A9F90A2267
:1007CC000023FFF70FFDFA239B0043437B61237942
:1007DC001A1C082B00D908220C232100F818D2B2BD
:1007EC00083108F0ECF91821380000F06DF8637945
:1007FC008AB05B0720682179DB0F6A4653620623B7
:10080C00084CD0615461084C116294611361C4218D
:10081C00002306481032890100F0AAFFBD4607B03C
:10082C0090BDC04656970008E8970008489100080C
:10083C00F0B587B01C4F380008F047F81B4E002865
:10084C0009D1012130001324194A07F0D0FA64426F
:10085C00200007B0F0BD0A226846164908F0AFF92F
:10086C006946380007F024FC041E06DA124A2300FD
:10087C000121300007F0C2FAEAE70025012203ABA0
:10088C001A7238002A000D4903955D6002F03AF89F
:10089C000400A84201DA0A4AE9E703213000094AB8
:1008AC0007F0A5FA2C00D3E7308F00084891000818
:1008BC0075970008D09100088A970008690700080E
:1008CC00A7970008C7970008B0B50E4B00AF1B7870
:1008DC00002B14D06C4688B06A460B4BD161536127
:1008EC000A4B9361042313618421094800231032BD
:1008FC00890100F03DFF0020A546BD46B0BD80201B
:10090C004042FAE772120020039800085E98000833
:10091C00B091000810B5084C03212000074A07F0DD
:10092C0066FA0122064B1A7003212000054A07F0D3
:10093C005EFA002010BDC046B09100082498000853
:10094C007212002045980008F0B597B00593042367
:10095C000B921A400B9B0A92DA0807231A400132B9
:10096C0007001C9D03910D92820700D0C5E1041D68
:10097C00002804D0072909D81C20404254E1039ACE
:10098C001A401300A4180822D31A0393059B0426BB
:10099C00013B0693002309930C9304930293013BB0
:1009AC0007930196002F01D0059B23600D9B002B14
:1009BC0000DDF1E09D4B059A9A4203D39C4B9A4281
:1009CC0000D2E9E00B99E21B9308890700D50DE1F1
:1009DC00049A0F2A00D9BBE0002F00D10EE1049934
:1009EC000EAA53540A00079912AB99540C9B01336D
:1009FC000C93F4E008260196069B01330693069BA4
:100A0C009878002800D105E1029B002B08D12528FD
:100A1C00F2D1079B01330793012302930426EAE7E3
:100A2C007A284AD84B280ED8472846D829282CD8BB
:100A3C0025283FD041D82028DED0233843425841C6
:100A4C00C3B20293D8E74C382E2836D8FFF730FBC8
:100A5C00D435353535353535353535353735353599
:100A6C00353535353561353737616161D437D23538
:100A7C00D435183718353579E63735353735E6003E
:100A8C00002308930426029327E0012213002A383E
:100A9C00C0B2834067490B42AED1E22118008905F0
:100AAC0008400B4235D11900114002911342A3D0DA
:100ABC00089013E0079B013B07930023C1E700223A
:100ACC00069B08925B7802926C2B07D10426069B3E
:100ADC0001961B786C2B01D1B6190196013CA0191B
:100AEC003100FFF7F9FA70430400002F3BD0019B53
:100AFC00039ADB1B1B18934200D93DE7089B002B84
:100B0C0041D1019B042B20D108CD03600423043474
:100B1C0015E0072107358D4364188C430CCD002F4D
:100B2C0008D00131C91B03980919814200D923E768
:100B3C00226063600023082602933300083401937B
:100B4C005AE7029B089300239CE7019B082B01D0DA
:100B5C00162012E7072307359D430CCD0260436036
:100B6C0008230834EBE7089B002B0CD1019B042BCA
:100B7C0001D10435CAE7019B082BE9D10735013BAC
:100B8C009D430835ECE7069B023306930D9B013B16
:100B9C000D9308CD059305E70B9B9B0722D50121EF
:100BAC00E21B9308802080008242D1D2049A0F2A43
:100BBC00CED8002F1CD00498DBB20EAA13549C463E
:100BCC00079B12AA1354002900D10FE78022634619
:100BDC00524213430EAA1354099B01330993049BED
:100BEC0001330493069B0434013B07E70021D9E74A
:100BFC00002903D0039B01330393F0E7039B0233DB
:100C0C0003930A9B002BEAD10598FFF737FB039B54
:100C1C001B18F1E78022E31BD200934298D2002FDD
:100C2C000AD103980838C01817B0F0BD588D0008C9
:100C3C0058A50008DAFF00009B08302238603B7092
:100C4C006B469B180A9A1B78002A0BD0FB70099BE9
:100C5C00BB70002B1BD100250EAE049BAB421BD1ED
:100C6C00E01BE1E77B70F2E70EADED560EA9595C87
:100C7C00002D07DA039E15190140B54200D97BE619
:100C8C0021700134013304999942EDD1E3E701223B
:100C9C0000237F20D21BF6E7099B002B02D0337870
:100CAC007F2B1BD80A9B002B1BD012ABEB5C237049
:100CBC000023013401930123019ADB1B1B199B18A0
:100CCC00039A934200D957E63378019A2370013482
:100CDC002000059907F073FF019B1C1901350136A3
:100CEC00BBE733789B00FB181A6805920A9A0598A3
:100CFC001A60FFF7C3FA431CDCE70E203DE6C04642
:100D0C00F0B59BB000AF3B628023FB181B6806005C
:100D1C001B07DB0F7B618378F9623A63BB630029A5
:100D2C000AD10478BB6BA400E41845780419FB6A5B
:100D3C009D421BD8A31BFB62F378BB61BB6B002BE2
:100D4C0004D08023FB181B68DB0719D4BB69002B6C
:100D5C0047D13B6B002B03D030003A6AF96A9847B5
:100D6C00FB6AFB63BD46F86B1BB0F0BD0134200081
:100D7C00FFF784FAFB6A013001332418FB62D6E7D3
:100D8C003378FB619B007B627368BB627B6AF518EE
:100D9C003B6B002B00D029E1FB6AFB63BB6BEC18AF
:100DAC000023BB63A54232D02B789B009859FFF7E8
:100DBC0065FA84217B181B680130002B0CD088222B
:100DCC00BA18BB6B1268934206D27A1812685B0091
:100DDC009852BB6B0133BB63FB6B01351B18FB6378
:100DEC00E0E78023FB181B689B07B2D53378FB61C7
:100DFC009B007B627368BB627B6AF5183B6B002BB4
:100E0C0077D1FB6AFB63BB6BEC183B6BBB6380223B
:100E1C000523BA181268250013405A425341013376
:100E2C00FB62BB695B00E3183B633B6BAB4299D045
:100E3C002B787B636B789B009C59B84B9C4202D3FC
:100E4C00B74B9C4223D37B69002B33D0796BB86AA8
:100E5C0006F0CEFC00282DD06C468AB06A46B14B09
:100E6C005361BB6A93617B6BD36180239B001384BA
:100E7C00AD4B136192210023AC481032890100F074
:100E8C0077FCA546FB6B023BFB630235CDE77B6928
:100E9C00002B05D0796BB86A06F0AAFC0028DBD1D0
:100EAC0080230122FB181B68134209D1FB6BFA6AE1
:100EBC009B1AE9E780230222FB181B681342E4D03B
:100ECC002000FFF7DBF984217B181B68002B0DD069
:100EDC008822BA18BB6B1268934207D2791809683A
:100EEC005B00421C5A52BB6B0133BB63FB6B1B1880
:100EFC00CAE7BB6B1C1E7B6315D0802104237A18B8
:100F0C0012681A4014007A637A1812681A420AD0CE
:100F1C000023BC6B7B63183340229B182900BA6BEF
:100F2C00D81907F04CFEBB6BEB18FB60FB63BB697D
:100F3C005B003B613A69FB68944663447B60FB6BE6
:100F4C007A68934257D17B6B757800215A198023AC
:100F5C00FB181B68D2B29B0700D46108802038189C
:100F6C0000680023C00705D48033FB181B685B079F
:100F7C00DB1723407270B370F17030003A6A796AF3
:100F8C003B6B9847F863002800DAEBE6FB694020DE
:100F9C003370BB6B2100B370BB693A6AF3701823D2
:100FAC001B18D81975703B6B9847041E00DAB1E01A
:100FBC00FB6ABA6BF868991A7B6A3A6AC91A3B6978
:100FCC009C46C91A60443B6B9847002800DAA3E0A2
:100FDC000025FB6B1C192318FB637B6B9D4261D3B3
:100FEC0000213A6A08003B6B9847BBE6BB6B0024B8
:100FFC007B63082390E7FB6B484A1B78BB60FB6B59
:10100C005D78AB009B59934202D3454A93420CD373
:10101C007B69002B30D0B968B86A06F0E9FB002870
:10102C002AD0FB6B0233FB6389E77B69002B05D06D
:10103C00B968B86A06F0DCFB0028F2D180230122E3
:10104C00FB181B6813420AD07B6B9B18073240219C
:10105C005218796BD219DBB255547B63E1E78023CC
:10106C00FB181B685B07DCD5182240215218631C47
:10107C00D2191555DCB2D4E780230222FB181B6869
:10108C00134203D07B6B06320133E0E74021182278
:10109C005218B968631CD2191155DBB20234E4B290
:1010AC00D554BEE7402208239B18DB19EB5C0732B2
:1010BC00BA18137084229B009B59BB63BB181C6825
:1010CC00002C09D08823FB181B6800249D4203D2F6
:1010DC00BA1812686B00D45A47230121F8183A6ADF
:1010EC003B6B9847002817DBFB6B1B18FB63002C32
:1010FC0004D1B86BFFF7C2F8013084B221003A6A10
:10110C00B86B3B6B9847002806DBFB6B01351B1853
:10111C00FB6362E7F86325E6F86323E6588D000865
:10112C0058A50008839800080400000128910008C5
:10113C00014B18607047C04600000020F7B5040052
:10114C000D001E00019205F0A7FC030007F0F4FD52
:10115C00054F32003B5001992800A04707F0ECFDE9
:10116C00385800F04FFFC0460800000080210220D4
:10117C000A4B0905DA6B82B00A43DA63DA6B0A4070
:10118C0007490192019A4A68824300204A60DA6B4F
:10119C0004490A40DA6302B07047C04600100240AE
:1011AC0000580140FFFFFFF780230D4A9B00116898
:1011BC0082B00B43012113600A4B0B4A1A600B4B94
:1011CC001A6C0A431A641B6C094A0B400193019B6D
:1011DC00C0231168DB000B43136002B07047C0469C
:1011EC0000200240300000200024F40000100240D7
:1011FC0000000140F7B505000600002D01D13000BC
:10120C00FEBD2800FEF7CEFF01238340DA430E4FCC
:10121C0004019D433B1901931B7B0092002BECD0E6
:10122C00E3591B69002B09D1009B3C191E406368D4
:10123C0004221968019806F09DFDDEE738199847DD
:10124C000028DAD1F0E7C046C0910008F0B50022C2
:10125C0089B00F490F4807F05FFC002400260027D7
:10126C000E20C0220C4D03900696079728000B4BBE
:10127C000B490494029401940094920005F032F905
:10128C000849280007F06AFB200009B0F0BDC046F1
:10129C00B5120008B005002038010020B91500086F
:1012AC00781200204B99000810B5024804F08EFF0C
:1012BC0010BDC046B8000020F7B500901F48019142
:1012CC0006F037FD061E35D000252800FEBD237B19
:1012DC00002B11D02368DB68002B01D0200098472D
:1012EC0063689F7123681B69002B1BD16368042200
:1012FC002000196806F03EFD01361034104B9C425C
:10130C00E5D3009B002BE0D0002DDDD02800FFF7AB
:10131C0071FF019B0500002BF6D00021642005F025
:10132C007BFBF1E7200098470028DFD03B00B3405F
:10133C001D43E1E705000127024CDFE70C08002004
:10134C00D0910008C0910008014B8000C058704734
:10135C0000920008030010B50800002B05D0044AC9
:10136C00136000F0ABFC002010BD16204042FBE7E0
:10137C000400002010B5054C2378002B02D1044842
:10138C0004F024FF0123237010BDC046731200200B
:10139C00B800002010B50400074806F0CAFC002C69
:1013AC0003D00121054807F0E9FB054807F0C0FB15
:1013BC00044804F00BFF10BD0408002008080020AE
:1013CC00B0050020B800002010B50021014807F03E
:1013DC00E2FB10BD0408002070B5FFF7F5FF050017
:1013EC00084C094B9C4200D370BD63685B79002BA1
:1013FC0006D023685B68002B02D029002000984798
:10140C001034EEE7C0910008D091000810B5044CE0
:10141C000449200006F01DFB034B1C6010BDC046A8
:10142C0068000020EC910008FC0700200023FA2142
:10143C000C4A10B513700C4A890013600B4A0C4807
:10144C001360FFF787FFFFF7E1FF0A4B0A4918000B
:10145C008B4200D310BD1A1A5C6812110132227132
:10146C001033F5E77412002004080020080800204F
:10147C00497D0008C0910008D091000810B5044CBB
:10148C00010000220023200006F004FB10BDC04622
:10149C006800002010B5024806F096FB10BDC0464F
:1014AC006800002010B5034B0100186806F0DDFB46
:1014BC0010BDC046FC07002010B5024806F00EFC1B
:1014CC0010BDC0466800002070B5204B187800286D
:1014DC0026D0FFF7DFFF1E4C051E2CD11D4B1E4CDA
:1014EC001B68002B11DD07F013FB0A220023FEF70B
:1014FC0079FE22686368801A9941002903D1FA2386
:10150C009B00984201D9FFF767FF22686368FA20B5
:10151C000021800012184B4122606360FFF7CCFF62
:10152C0070BD63685B79002B04D023682900200010
:10153C001B6898471034094B9C42F2D32800FFF7E4
:10154C00B1FF0121064807F019FBC7E77312002011
:10155C00C091000804080020A8050020D0910008C4
:10156C000808002070B50E4D297800290CD10120F7
:10157C00FFF7A2FE0B4C0C4B9C4206D3FFF7A4FFCB
:10158C000028FBD101232B7070BD63685B79002BA5
:10159C0003D0236820009B6898471034EBE7C046C3
:1015AC0074120020C0910008D0910008F7B50021FA
:1015BC000800FFF781FE041E2DD0FA2700267F00BD
:1015CC0007F0BAFB1C4B1D4A1B581360002B06D0AE
:1015DC001B4B1B68092B02DD1A4804F0F7FD002396
:1015EC000093002C07D02000FFF704FE041E02D14C
:1015FC0001277F423E00FFF767FF0190002808D1CA
:10160C00009B114D002B13D10E483A00330004F00F
:10161C000FFE019BE4E701277F423E00D0E72B68D9
:10162C009B69002B03D0002228001100984710352D
:10163C00064B9D42F3D3E7E70800000000080020AA
:10164C0008080020B8000020C0910008D0910008C4
:10165C0013B5154806F06DFB144B1B78002B0AD004
:10166C00EFF3108472B6FFF72FFF002C02D162B695
:10167C00BFF36F8F13BD0E4B1B68002BFAD00028E5
:10168C0009D1002200230B480092019300230A4A3F
:10169C0005F012FDEEE70928ECD1064807F048FAF0
:1016AC00064804F093FDE5E70808002074120020BA
:1016BC0000080020B005002010270000B800002012
:1016CC0010B5064B04001B6898472100A060044825
:1016DC0006F05EFAFFF7BCFF10BDC0460400002008
:1016EC0068000020044B054A00209B1ADB08994235
:1016FC0001D2C90088587047C091000810910008A9
:10170C00F0B55E1C85B0B50000902800072317309B
:10171C009843033080080F000192FFF7AFFE02AB35
:10172C0004000322581D002107F052FA03AB1E706F
:10173C00002C0BD0039B21002361002314312A1FA2
:10174C000198C058C85004339A42F9D1E023BA0129
:10175C005B001A406D02054B2A431A4020000023FF
:10176C00009906F02BFB05B0F0BDC046C0FF0F0082
:10177C00F0B591B004AF3B600B035B0D0D007860CE
:10178C007A613B610C0D002B00D173E0BB6000262D
:10179C0004237E62BE62FE6202931833FB1801932F
:1017AC000A231822009302339B18DB193200B96804
:1017BC007869FFF7A5FA8023F8601B01984224D3BF
:1017CC007B696C461A795B798AB01B0213437A6980
:1017DC00927912041A437B69DB791B06134304AA22
:1017EC009361294B2949D36180239B001384284B97
:1017FC005161136192213300264810328901FFF7A1
:10180C00B7FFA546BD460DB0F0BDFB6817345B05B0
:10181C005A0D3A61204A1B0B15401D43FB68E0181A
:10182C000723984303308008FFF728FE041E15D0C9
:10183C00030010337B62FB68FE62BB6204230293DD
:10184C001833FB1801930A231821009302335B18F9
:10185C00124AB9687869DB19FFF752FA3B690E4AEC
:10186C005B0215401D432A0020003B68796806F096
:10187C00A5FAC7E7200007231730984303308008E8
:10188C00FFF7FCFD0400E9E7FF0700006099000882
:10189C000400000150910008FF01F0FF977D000843
:1018AC00F0B587B00E9F0400150002910393002F32
:1018BC0015D00F9B10210593009300203B000D9A2F
:1018CC00FFF742F8802306001B01984208D302213F
:1018DC00174A1848184B06F091FA07B0F0BD3E00B5
:1018EC00072322000C9C1D401A40D2001734AD0176
:1018FC001543A0197202154398430C9A0330120534
:10190C0080081543FFF7BAFD041E09D0002F07D03D
:10191C000F9B310000930D9A3B001030FFF714F829
:10192C002A002000039B029906F048FAD5E7C0462E
:10193C009F99000850910008FF070000406800289C
:10194C0004D0044BC01AC00800B2704701204042BA
:10195C00FBE7C046109100080EB417B5054C05AB5B
:10196C0004CB01002000019300F058FC1EBC08BC05
:10197C0003B01847657E000810B5CB0604D4890661
:10198C0003D50349FFF7E8FF10BD0249FAE7C0464B
:10199C004F9600084E960008F0B591B0079317AB20
:1019AC001B7804000D0006920593002B00D1B4E0C7
:1019BC0002261B9B1B9A1E4001231A400C921B9A59
:1019CC0007331A4008921B9AF8331A4009920027E1
:1019DC0006F0CEF90200B84204D020008D49FFF782
:1019EC00BBFF0700002E09D044231B9A1A4235D1A5
:1019FC002A0020008849FFF7AFFF3F180C9B002BF3
:101A0C000AD0059A854B9200D258002A00D1844AFC
:101A1C0020008449FFF7A0FF099B002B5AD0089B9C
:101A2C00002B77D11D00069B002B05D01A0020003F
:101A3C007D49FFF791FF0500189B7C48ED19002BA1
:101A4C0000D0BEE01A9B002B74D11B9BDB0700D58A
:101A5C00DAE020001B99FFF78FFFBEE00020744BEB
:101A6C001E688642C9D0734B28001968FEF734FBF8
:101A7C00FA253100FEF76CFBAD0069430A900800B3
:101A8C003100FEF765FB0E91E1210D9009010A98DA
:101A9C00FEF75EFB0B910B983C21FEF71DFBE12141
:101AAC000F9009010A98FEF717FB0A900E98310067
:101ABC006843FEF711FB0D9B02903C210B980193A0
:101ACC00FEF746FB200000910F9B0A9A5A49FFF73C
:101ADC0043FF92E7089B099D002B08D0059A574BB2
:101AEC00920020005649D258FFF736FF0500069B9E
:101AFC00002B05D01A0020004B49FFF72DFF2D18A5
:101B0C00079B002B98D01A0020004E49FFF724FFAA
:101B1C002D1891E700230793E0E7079B4A48012B18
:101B2C0000D14248189B059D002B4AD11A9B002BD3
:101B3C0053D000251A9F102F00D9102720001B9975
:101B4C00FFF71AFF0026B5424CDC199B20001A78CF
:101B5C003E49FFF701FF012607231E4203D1200057
:101B6C003B49FFF7F9FEB74242D9199B20009A5D19
:101B7C003649FFF7F1FE0136102EEDD1002620007C
:101B8C003449FFF7E9FE3300199AD25C1300203B6D
:101B9C005E2B00D92E2220002F49FFF7DDFE0136E7
:101BAC00102E2AD007231E4203D120002849FFF70C
:101BBC00D3FE3300B742E7D820002549FFF7CCFE0F
:101BCC00EDE7189B2200254905F0DEFD1A9B002B42
:101BDC00B0D1059B002B00D037E7200006F030F980
:101BEC0011B0F0BD20001A49FFF7B6FE0136AAE786
:101BFC0020001B49FFF7B0FEBDE7199BDB191993B9
:101C0C001A9BDB1B1A93E2E72000054A0549FFF7F4
:101C1C00A3FE1EE7DC990008E0990008109200086A
:101C2C00D79900083D970008059A0008657E0008C2
:101C3C001408002010080020E999000824920008DC
:101C4C00099A00080F9A00088B7E0008149A000865
:101C5C001C9A00081E9A0008209A000829220008E5
:101C6C001A9A000873B5114A04000B0005689142DA
:101C7C0000D91300052168460D4A05F071FA0600DB
:101C8C00636828000B220B495B6806F0CAF863688E
:101C9C003200280069465B6806F0C3F863682800C8
:101CAC001B2205495B6806F0BCF873BD0F270000CA
:101CBC009A9C00083F9A0008239A0008012310B54B
:101CCC0000211C00074A904207D8074A002900D17E
:101CDC0001231360054B186010BD210040085B0008
:101CEC00F1E7C04640420F00100800201408002005
:101CFC0070B50D0004004618B44201D1280070BD27
:101D0C0021780348013483685B689847F4E7C04640
:101D1C00108F000810B5034A03480021121A06F070
:101D2C0027F910BD78120020380100200648074A18
:101D3C0010B5121A064906F01FF9064A064807495B
:101D4C00121A06F019F910BD00000020370100200E
:101D5C0058A50008000000200000002058A500082D
:101D6C00F0B585B000AF0C1EB86036D06E468AB0A8
:101D7C006D4609686268A3682B6205232048A96137
:101D8C006861EA612B61A1212A001E4810320023F0
:101D9C0089017A60F860FFF7EBFCB546E168AD4667
:101DAC00226963692B6205231748A9616861EA619E
:101DBC002B61A12100237A68F8688901FFF7D8FC10
:101DCC00B546E3690121114AF86806F017F8A369D2
:101DDC0001210F4AF86806F011F8BB68012B07D1F6
:101DEC00EFF305830B4A0748B968103B06F006F879
:101DFC002100B86803F0B0FFBD4605B0F0BDC04689
:101E0C00AC9A000870910008DB9A00080A9B000845
:101E1C00199B0008479B000830BFFDE7F7B50A4B3C
:101E2C000A4D0600EF18CC1B2A002000084901932C
:101E3C0006F0C5FE60190021019A06F0C9FE3800B3
:101E4C00083C74660830FEBD040000000000000071
:101E5C00D0910008054B5A699B689A4205D08023A3
:101E6C00034A5B0551680B4353607047FC1100201B
:101E7C0000ED00E0F0B53E4B8BB05B6800AF7B60D3
:101E8C00DB05DB0D04003B6062B6BFF36F8F394E90
:101E9C00130EFF2B08D1F33B1340082B3DD101212E
:101EAC003000354A05F0A3FF00252C003B68032BBE
:101EBC0039D1324A0121300005F099FFA369304A2B
:101ECC00934202D32F4A934205D32F4A934249D3CC
:101EDC002E4A934246D2023B1A882D4B9A4241D14C
:101EEC002368012130002B4A05F088FF266808235F
:101EFC002022F818210006F062FE7B6A002D33D0F8
:101F0C00DA0502D1244A13437B6208233000F91806
:101F1C00FFF726FFBD460BB0F0BD01251207C5D556
:101F2C000C000025C2E7F822796852001B4B1142C5
:101F3C0000D01B4B6A468AB07A606A4693613B6854
:101F4C001849103BD36180239B001384164B5161BD
:101F5C00136191210023300010328901FFF708FC36
:101F6C007B689D460026C2E75B0A5B02CCE7C04655
:101F7C0000ED00E070910008889B0008B39B0008FE
:101F8C00BC000008508D000800000020000000205C
:101F9C0002DF0000CA9B0008FF0100005A9B0008EA
:101FAC006F9B0008E69B0008040000010821024A10
:101FBC0053698B435361704700ED00E0EFF30880E9
:101FCC00EFF3098101B57246FFF754FF01BDC0461E
:101FDC00094880F3088872B608480949401880F30C
:101FEC000988EFF314800221084380F31488BFF3AF
:101FFC006F8F05F0D7FF0000782E00207815002099
:10200C000008000010B50A4B9B6883420DD1EFF31A
:10201C000583002B09D08022064B520559680A43D0
:10202C005A605A6A04490A405A6204F03BFD10BDDA
:10203C00FC11002000ED00E0FF7FFFFF15498A68CE
:10204C0015481044EFF3098CF0C043464C465546F6
:10205C005E466746F8C072B6104F114E4A698A60E8
:10206C003E60104C141920680F4C2060906E0023B9
:10207C009366002800D162B6074C10191030F8C8CE
:10208C009846A146AA46B346BC462438F0C88CF301
:10209C0009887047FC1100203000000004ED00E0BE
:1020AC0000000008640000003C0800200420714679
:1020BC00014202D0EFF3098001D1EFF3088081696E
:1020CC00023909780229FFD001B5724605F058FF94
:1020DC0001BDC04643B2000605D41F221A4001239D
:1020EC009340014A1360704700E100E030B5FF25D2
:1020FC0003220B00290040B20240D20091409B0108
:10210C002B40C943934000280ADBC0240A4A8008AC
:10211C0080008018A40002590A401343035130BDBB
:10212C000F2210400838054A800880008018C269C8
:10213C0011401943C161F2E700E100E000ED00E05D
:10214C00FF22044B9343044A9360BFF34F8FBFF3BA
:10215C006F8F70470000000800ED00E010B5203ACA
:10216C001360029B01245360039B06499360049BFC
:10217C00A143D36080235B04D3610023916102658A
:10218C00836610BD4911000870B50B4B15009860A3
:10219C00426E0A4B0E001A602C1C86F30988002034
:1021AC00034B9847201C002100220023014C2047A0
:1021BC00CD7F000849110008FC1100203C080020CC
:1021CC001022014B1A61704700ED00E0F0B5C024FD
:1021DC0000220326FF25A40010002F003040C00071
:1021EC008740054993089B005B1819590132B94384
:1021FC0019511F2AF0D1F0BD00E100E010B5EFF34A
:10220C000583054A103BDB00D1184968985888476C
:10221C00FFF720FE10BDC046508F0008F0B587B008
:10222C0007000E0014000021102268461D0006F065
:10223C00CFFC6A4602239370054B2A0021006846A6
:10224C0001930497059604F0B5FF07B0F0BDC046A6
:10225C00E77F000810B5024B1B689847002010BDA3
:10226C0040080020034B044A1860022391780B436A
:10227C00937070474008002010000020072310B511
:10228C000449054A99430548521A05F043FA0020BF
:10229C0010BDC0467F5200200040022044080020A0
:1022AC00F8B50600002501277378AB4200D8F8BDBD
:1022BC0034786419200000F0FDF800280ED02000BE
:1022CC0000F022F9074AE1008B58002B06D0521877
:1022DC001F2138000C40A040516898470135EDB2E1
:1022EC00E2E7C046500800200022052010B50C4C37
:1022FC00110020706070FFF7F9FE0022062011001B
:10230C00A070E070FFF7F2FE0C220721054806F0E2
:10231C005FFC002207201100FFF7E8FE002010BD33
:10232C00400000204400002010B50400FF20002CC9
:10233C0005D02000FDF718FF1F23181AC0B2044B5C
:10234C001856044BDA6F1443DC67FFF7C3FE10BD5D
:10235C004000002004180240024AD36F8343D36725
:10236C007047C04604180240020000B5080003295B
:10237C000AD80E4BFDF7A6FE02090C1319689143FF
:10238C00196059689143596000BD19681143F7E70A
:10239C00596811435960196891431960F4E7196839
:1023AC001143196059680A435A60EDE7001802405E
:1023BC0070B5FF230D001400002804D0FDF7D4FEE7
:1023CC001F231B1ADBB2094AD8008358AB4203D136
:1023DC0011184968A14204D0002B04D115501218D1
:1023EC005460002070BD10204042FBE750080020D4
:1023FC00FF2310B5002804D0FDF7B6FE1F231B1ACF
:10240C00DBB20021024ADB009950D218516010BD9A
:10241C0050080020C022C30452031340032210B5FD
:10242C000724800803431A401B0C9C409940044825
:10243C0092001218106EA0430843106610BDC046DF
:10244C0000180240C022C304520313400322800828
:10245C0003431A40044918329200505807221B0CAF
:10246C009A401040D84070470018024013B50E4CEB
:10247C00200006F02AFA002807D10C4801210C4A4A
:10248C0005F0B5FC132040420AE0402300933F3B8B
:10249C000193A3681B68002B03D069462000984762
:1024AC0016BD5820EFE7C046F08D000838910008A3
:1024BC00069C00081F2201210240030008009040E6
:1024CC0010B502003F2B05D90C480D4A05F096FCBF
:1024DC00002010BD0B481F2B0AD8C36813409A422A
:1024EC0004D001691140891A4B4259410800F0E7A8
:1024FC00C36A13409A42F9D0016BF3E73891000894
:10250C00259C0008001802401F22012102400300F4
:10251C00080010B590403F2B06D90848084A05F032
:10252C006DFC1620404210BD064A1F2B03D8D0600C
:10253C0010610020F7E7D0621063FAE738910008C9
:10254C00259C0008001802400200802103008A43E9
:10255C000020072A08DC5AB20448002A00DA044892
:10256C0024228B435343C0187047C046B40B002041
:10257C00D40C002010B5024802F04EFA10BDC04633
:10258C00D0080020044B020010B51800034905F0D8
:10259C0034FD1620404210BD98910008659C00083F
:1025AC00130042B213B50400002A0BDA802801D1C3
:1025BC00002B0AD011482200114905F01EFD1620EF
:1025CC00404216BD402B00D940238022210091436C
:1025DC000C4A0D48890189180A18210006F030F9B7
:1025EC00030000208342ECD0044800930121230017
:1025FC00064A05F00BFC0520E2E7C046989100085E
:10260C00659C000824050000D0080020779C000879
:10261C0043B210B50C00002B01DB002902D1FFF7EF
:10262C00B1FF10BD034B0100180006F024F9206027
:10263C000020F6E7D008002070B5114C0023402292
:10264C008021200006F0D0F8002340221900200041
:10265C00902606F0C9F8002576008323DB00E018ED
:10266C004019243503F0B2FDB542F6D1B8239B00D6
:10267C00E358002B02D000210120984770BDC046C2
:10268C00D0080020B82210B5044B92009B58002BA8
:10269C0002D000210520984710BDC046D00800206C
:1026AC00B82210B5044B92009B58002B02D000218D
:1026BC000620984710BDC046D0080020BC23082235
:1026CC0070B5104C0025104E9B00E25032000433C4
:1026DC00E5500E4B03CB03C2BB239B00E358AB422C
:1026EC000ED0290028009847094BE25AAA4207D07D
:1026FC00063BE35C7F2B03D831002800FFF750FF2B
:10270C0070BDC046D0080020F40D00206C0B0020DA
:10271C00A2020000F0B591B0029316AB069204CB66
:10272C0003911B8804920193029B5C889B88013463
:10273C00E418029BDB88E418002A00D1D4E0FA23C9
:10274C00019A9B009A4200D3CEE083680FA99B6A42
:10275C009847002800D0C9E0019B002B0CD1644B9A
:10276C00049A9A4240D8634B93429B414A2293432A
:10277C00614A9446634401930F9B0499180061438A
:10278C000D93FDF7A9FC069B1B89984200D21800FB
:10279C00049B059043430C93584B0A93029B059A58
:1027AC001B89934222DA0A98039B039ADB8892884E
:1027BC005B08191C934200D9111C039B8AB2198027
:1027CC00069B1B889A4206D9029B19880B1C9142C6
:1027DC0000D9131C9BB2039A1380484B984201D129
:1027EC008620404211B0F0BD454BC4E70C990D98C2
:1027FC00FDF7AEFC0990002930D1029BFA219B8891
:10280C0089000793029B5B880B930B9A079B9C1880
:10281C00069BA4B29B880893069B5D886B469E8C96
:10282C00019B5843FDF758FC069B301ADA8880B29E
:10283C001700904206D9029BDB881F1C834200D9EB
:10284C00071CBFB2731EDB1B9BB29C420FD2029BB8
:10285C00361B013EDB88B7B2BB4212D2049A059BF1
:10286C009446013305930C9B63440C9396E70899AB
:10287C004C19A4B29C4217D9361B013EB7B2BA42CE
:10288C00ECD863089D4206D26A46958D0B9A9A4203
:10289C0000D91D1CADB2661B079BB6B2B34205D264
:1028AC00E51A1E00ADB204E01C00EAE7089BB34237
:1028BC00F6D8FA23601C9B0058430999FDF70CFCD1
:1028CC00019A0300101A9A4200D2981A0A9B984255
:1028DC00C4D2039B059A5D809E80DF801A810028FC
:1028EC0000D161E70A90B9E716207AE7052078E76E
:1028FC0000350C0020A107006B030000FFFFFF7FD9
:10290C00EE020000F7B5846800AFA446002928D079
:10291C00002B26D01C7A1E685D68E40725D5802420
:10292C00A405A64201D2A54229D31D21082316488D
:10293C006A468EB07A606A461362936280239B006B
:10294C00124C1386124B54619061D1615662D56260
:10295C00136100230F4810491032FEF709FF7B6802
:10296C009D4616204042BD46FEBD80242401A64251
:10297C0001D2A54203D30B2103230848D8E76446B0
:10298C00A469A047EFE7C046AA9C0008E99C000890
:10299C00080000011091000840440000B39C00089E
:1029AC0073B514001D0082683032064E83683A33CA
:1029BC00B44204D801950094FFF7ACFE76BD162006
:1029CC004042FBE740420F0073B514001D008268C3
:1029DC004832064E83685233B44204D801950094B1
:1029EC00FFF798FE76BD16204042FBE700127A00F6
:1029FC0037B543680D009B691B689847041E06D0C9
:102A0C0001212B00034A0448009405F0FFF9200033
:102A1C003EBDC046369D00081891000837B5436886
:102A2C000D009B695B689847041E06D001212B00A2
:102A3C00034A0448009405F0E9F920003EBDC04665
:102A4C00599D000818910008F0B59BB0039343689A
:102A5C000500029101920021482208A8DF6906F0C6
:102A6C00B7F82800019905AAFFF7C2FF002818D172
:102A7C007F22059B134214D03F2248241B0A1A4084
:102A8C005443029B00921C19A4B206AA08232100ED
:102A9C00280005F036FB021E05D03C493C4805F0E9
:102AAC0046FB1BB0F0BD04AB9B7B1B071B0FDAB2C4
:102ABC00944608AA137104ABDB7A990603D502215C
:102ACC0050790143517106AA9279910604D50421DB
:102ADC0008A8467931434171D20604D5082208A9C9
:102AEC00487902434A715AB2002A04DA102208A922
:102AFC00487902434A7106A9CE7908AA7606760E61
:102B0C005B061FD5069BDB00DB080893012351797C
:102B1C000B43537162461F4B9B5C402B2FD808AA6A
:102B2C005279920713D4002B11D0032203330834AB
:102B3C00934328000AAAA1B205F0E3FA021E06D0BC
:102B4C001549ABE74B88DB045B0D0893E2E708A95A
:102B5C004B79F600DB0710D5BB689E193368726899
:102B6C00002B01D0280098472800009A0399FFF702
:102B7C0055FF002800D174E793E77B68EDE701214E
:102B8C00064A034805F0CFFAEEE7C0467D9D0008E3
:102B9C001891000802A20008A49D0008C99D000815
:102BAC00F7B50500066901225242D31710363000E2
:102BBC0005F0C4FA1821280001AAFFF719FF041E1A
:102BCC0028D11023019A18219A4328000192FFF76B
:102BDC0025FF041E1ED101F0A1FE1821070001AA39
:102BEC002800FFF705FF041E14D10822019B134295
:102BFC0010D001F093FE0E4BC01B98420FD910223F
:102C0C00019B18211A4328000192FFF707FF041EAD
:102C1C0000D10B3C300005F095FA2000FEBD1821C8
:102C2C00280001AAFFF7E4FE0028DED00400F1E73B
:102C3C0000A8610070B50469050023790E00002B13
:102C4C0025D1103401225242D317200005F076FA18
:102C5C007F21F3883288013B0B40FF21013A520659
:102C6C001A43B3880902013B1B020B401A433389F8
:102C7C000849013B1B040B4028001C211A43FFF799
:102C8C00CDFE0500200005F05DFA280070BD102572
:102C9C006D42FAE70000FF01F0B5036987B00193BC
:102CAC001B7905004768002B00D06AE038680028C3
:102CBC000ED08368019A1B6811689847041E07D0D0
:102CCC0022003149314805F032FA200007B0F0BD3E
:102CDC002E6901225242D3171036300005F02EFA1D
:102CEC001821280005AAFFF783FE041E0ED0300021
:102CFC0005F028FA25482200254905F018FA38680D
:102D0C000028E2D083685B689847DEE70123059AC8
:102D1C0018219A4328000592FFF780FE041EE6D185
:102D2C0005F0F6FE029003912800182105AAFFF782
:102D3C005FFE041EDBD10122059B134208D130003B
:102D4C0005F000FA002CD5D10123019A1371BCE7D0
:102D5C0005F0DEFE029A039B801A994100290DDCD6
:102D6C0003D1FA239B00984208D81821280005AA01
:102D7C00FFF73EFE0028DED00400E0E70B2464429F
:102D8C00DDE778246442A0E7DA9D0008189100087A
:102D9C00049E0008F0B506000D00076985B00729F0
:102DAC0007D92A002A492B4805F0C1F98624644228
:102DBC0042E03B79002B48D13B0010330193019842
:102DCC0001225242D31705F0B9F91821300002AA9A
:102DDC00FFF70EFE041E2CD11021300003AAFFF7C2
:102DEC0007FE041E25D18022029BE90727D51A4332
:102DFC0010230292039A13430393029B20211A007F
:102E0C008A43A80701D50A001A436B071AD5C023B9
:102E1C009B001A43182130000292FFF7FFFD041E9D
:102E2C0007D110213000039AFFF7F8FD041E00D1E2
:102E3C003D60019805F086F9200005B0F0BD934384
:102E4C000293DAE7044B1A40E4E71024AFE7C046DC
:102E5C00279E000818910008FFFCFFFFF7B55021D2
:102E6C0001AA04004768FFF7C3FD002835D1992655
:102E7C000125019B1A00324033422ED050212000F4
:102E8C00FFF7CCFD002828D1019B2B4205D0A823AD
:102E9C00A4222000F98EFFF7D7FD019BDB0605D598
:102EAC00B823B4222000398FFFF7CEFD019B1B07FE
:102EBC0004D52900094A0A4805F035F9019B1B067F
:102ECC0004D52900074A064805F02DF950212000A9
:102EDC0001AAFFF78DFD0028CBD0F7BD409E00085E
:102EEC0018910008569E0008F0B5040003698BB0D9
:102EFC0002935021200006AAFFF77AFD002805D185
:102F0C0006995F4B0A001A40194201D10BB0F0BD73
:102F1C0050212000FFF782FD0028F7D1E022069B0C
:102F2C009204134237D026692000B36807AA009395
:102F3C00F36803936368DF6904ABDD1D290005F0BA
:102F4C00A7F9002827D12B780193009B002B05D0E3
:102F5C002000039B079A0199009DA847019B032B16
:102F6C0019D10122D42120005242FFF757FD051E32
:102F7C0011D13B7B9D4254D31821200008AAFFF7A6
:102F8C0037FD002807D10123089A18219A43200005
:102F9C000892FFF743FD8022069B5201134222D078
:102FAC006768FB69009323690193F421200007AA49
:102FBC00FFF71EFD002816D13F23079D1D4212D09E
:102FCC001F232D0AB98F1D40EB00C91808AE320023
:102FDC000823200089B205F094F8021E36D0294946
:102FEC00294805F0A4F8069B1B0408D50121274AA3
:102FFC00254805F098F80298243003F0E7F8069B72
:10300C009B0004D50121224A1F4805F08CF8069B31
:10301C009B0300D46DE701211E4A1B4805F083F881
:10302C0067E73A68E90052181368002B0CD00020AF
:10303C0010603A6820005218722152684942984731
:10304C003000243003F0C2F8013592E72A00F82151
:10305C002000F679FFF7E2FC051EC4D1009BF600B8
:10306C001B689B195A681E680392186001982430DB
:10307C0003F0ACF829002000039AB04795E7C0464E
:10308C000090823B6C9E000818910008929E0008EC
:10309C00A79E0008C29E0008F0B58FB00993436844
:1030AC0007920693039004910C79DF690669784ABC
:1030BC00231C0F2C00D90F23DBB2D35C0021082278
:1030CC000CA8059305F084FD01214025049BAC461A
:1030DC005A7953080B40900128405B01034308A820
:1030EC00C3748023D008313D084025405B42000169
:1030FC002B4303439008084040010343604683433D
:10310C0008A883750F2A06D96249634805F00FF8A1
:10311C0086246442B3E033685B0707D40C231A425D
:10312C0004D05E4A5C4804F0FEFFF1E7059B402B9F
:10313C0009D9402301210093594A5748059B04F0B3
:10314C0065FE1624E5E7520707D50F2C08D955491B
:10315C002200514804F0EBFFF3E75349082CF7D851
:10316C003379002B00D18DE0442103980BAAFFF793
:10317C003FFC041E00D082E00B9B1B0600D583E0B5
:10318C00330024330893079A099B089803F050F8EE
:10319C00041E00D07AE0343601225242D31730009C
:1031AC00079604F0CBFF3B7BA34241DC0126764221
:1031BC0004990CAAD671049B49791B68C9073FD5A1
:1031CC000C9ADB00520FDB08520713430C93482573
:1031DC007543069BADB2D98F0398691889B2082341
:1031EC000CAA04F094FF3149041E16D1049B5B79A0
:1031FC009B072DD4059B002B2AD003220699033361
:10320C00C98F93430831049A69180398083289B21C
:10321C0004F07DFF041E1BD0254922001E4804F03B
:10322C0086FF079804F08EFF089802F0CFFF26E087
:10323C003A68E1008A582600002AB9D00134B3E775
:10324C0051881C485B05DB0C01400B435380BEE7E7
:10325C003B68149AF5005A513B68159A5B195A60F1
:10326C000122D021B2400398FFF7D8FB041E03D0F3
:10327C0000223B685A51D4E7079804F063FF200002
:10328C000FB0F0BD732444E7722442E70B2440E7EF
:10329C0002A20008DD9E000818910008009F00089B
:1032AC002B9F00085B9F00087D9F00089F9F0008D4
:1032BC00C99F000803E0FFFFF0B587B00392426896
:1032CC000291D76901921A682A4912040A40802196
:1032DC0000245B6806695B0509065B0D0B431A430A
:1032EC0010360592050001225242D3173000009689
:1032FC0004F024FF7B7BA3420ADC1C2502211E4A1E
:10330C001E4804F010FF009804F01CFF6D422DE0E5
:10331C007A68E600B258002A0DD00134EBE7009829
:10332C0004F010FF7B68029A25009A517B68039A7F
:10333C009B195A601AE00123382004AAD179234042
:10334C0001338143DB000B43D371019AA300518EEF
:10335C002800C91889B2042305AA04F0D8FE051E5A
:10336C00DDD02A000649054804F0E1FE280007B02C
:10337C00F0BDC0460000FF071DA000081891000812
:10338C00F19F0008F0B51D00436887B002910392CD
:10339C0001932A7A0400DE69012A06D93A493B488E
:1033AC0004F0C5FE862464426AE0002A43D004ABD4
:1033BC00076905220021D81C05F00AFC2A68049B29
:1033CC00D2005B0FD2085B07134304938023802148
:1033DC006A680025D200D2081B061343059A89059A
:1033EC000A40134310370593380001225242D31779
:1033FC00009704F0A3FEB37B9D4209DB0221244A13
:10340C00224804F090FE009804F09CFE1C24CAE7AD
:10341C00B268EF00BA58002A14D00135ECE70098D6
:10342C0004F090FEB368029A2C00DA51B368039A48
:10343C00DB195A6022E02B00039A0299FFF73CFF3C
:10344C0004001DE001231F2104AAD2782B40013374
:10345C000A405B01134304AAD370019B2000998E90
:10346C000823C91989B204F052FE041ED7D02200D9
:10347C000849064804F05BFE002C01DB737BE41862
:10348C00200007B0F0BDC0463DA000081891000810
:10349C0061A00008F19F0008F7B5436805000C1EF9
:1034AC00DE690769019305DA22002049204804F0FF
:1034BC003EFEF7BD103701225242D317380004F0FC
:1034CC003DFE727B94421ADBB37B1849A21A9342DD
:1034DC0028DD0021B368D2009950B36828009B18EE
:1034EC005960019B998E891889B2082204F015FE47
:1034FC001049021E16D1380004F024FED9E7002230
:10350C007368E1005A507368A4005B185A60019B01
:10351C000432598E2800091989B204F0FEFD021EEE
:10352C00E9D00549024804F002FEE4E781A0000856
:10353C00189100089CA00008C8A00008F8B5046900
:10354C00456823790600EF69002B46D0FA22002348
:10355C00920004F0FBFD002807D00121204A2148ED
:10356C0004F0E1FD05256D420CE0286800280BD025
:10357C0083685B689847051E06D02A001A491948CB
:10358C0004F0D5FD2800F8BD0025300004F0C1FE84
:10359C0025713B7B9D420BD3103401225242D31731
:1035AC00200004F0CBFD200004F0CCFD0025E9E761
:1035BC003A68E90052181368002B0CD000201060F8
:1035CC003A683000521873215268494298472000DB
:1035DC00243002F0FBFD0135DBE77825C3E7C0465C
:1035EC00F4A00008189100080EA10008F0B589B0ED
:1035FC004568066904000A22002102A8EF6905F05B
:10360C00E7FA0A22002105A805F0E2FA3000103092
:10361C0005F07EF93000343005F07AF9397B300052
:10362C000A00243005F07BF9286800280AD005F040
:10363C004CF9002806D101214F4A504804F073FD83
:10364C00132013E02000FFF7ABFA4D4A002808D1F5
:10365C00FA2200232000920004F078FD002808D004
:10366C00484A4648012104F05EFD0520404209B05D
:10367C00F0BD200004F04DFE1821200001AAFFF738
:10368C00B7F90028F3D1019A3F4B18211A402000BA
:10369C000192FFF7C3F90028E9D11021200001AAFB
:1036AC00FFF7A6F90028E2D11021019A20008A43E5
:1036BC000192FFF7B3F90028D9D18021200001AA8B
:1036CC00FFF796F90028D2D12B22019B80211A43B7
:1036DC0020000192FFF7A2F90028C8D1EA682B8AD2
:1036EC00200002A9FFF75CF9284A1630B9D06A69A4
:1036FC006B8A200005A9FFF767F9254A1630B0D070
:10370C00200002A904F0D4FC021E04D021491B485D
:10371C0004F00DFD94E705A9200004F0DBFC1E4924
:10372C00021EF4D11D4A542120000192FFF776F9B4
:10373C0000289CD19922582120000192FFF76EF9A4
:10374C00002800D093E703225C2120000192FFF7B0
:10375C0065F9002800D08AE70122E02152422000BE
:10376C000192FFF75BF9002800D080E701002A6C7A
:10377C00200004F0D2FC7AE753A10008189100084D
:10378C0039A10008F4A000085BFCFFFF6DA1000844
:10379C008FA10008BBA10008D9A100089990820351
:1037AC00D02843D02BD8A82842D011D884281CD09C
:1037BC000300883B9BB21C2B20D801229A4026493F
:1037CC000A4212D1082B35D01C2B17D1902015E0B2
:1037DC00B82831D00BD8B42830D00FD8030004222D
:1037EC00AC3B93439BB2002B08D11C4806E0CC2881
:1037FC0026D003D8BC28F8D0C828F6D07047E028CB
:10380C0020D007D8D8281FD0DC281FD0D428F5D139
:10381C00D020F3E7F4281BD004D8E4281AD0F028E1
:10382C00E3D0EBE7F828E9D1E820E7E7CC20E5E79F
:10383C009420E3E78420E1E79C20DFE79820DDE794
:10384C00C820DBE7DC20D9E7D420D7E7D820D5E7A0
:10385C00E420D3E7E020D1E701001101FFFF0000D5
:10386C0070B5436808005E6C0D001400FFF798FFFC
:10387C001D4B984234D03368C0180368582D1FD0A4
:10388C0019D804229543502D17D1FF22F820990105
:10389C0092051140C002DA00024011430122FE20C1
:1038AC001A40114340019A00024011431C225B0054
:1038BC0013400B4301E0802D0FD02360002070BD1E
:1038CC0002211A000A400B4200D0D022DB0701D49F
:1038DC002260F3E70D231343EFE73F221340ECE79D
:1038EC0086204042EBE7C046FFFF000070B54368FE
:1038FC0008005D6C0E001400FFF752FF1C4B984241
:10390C0032D0582E21D019D804239E43502E17D1D3
:10391C00FF22F821A309120413400902E2080A400D
:10392C0013430122FE2122401343C900A2080A407E
:10393C0013430E22640814401C4301E0802E0FD068
:10394C002B68C0180460002070BDD02323405A1E81
:10395C0093410D2222405C000123002AECD1EFE7B9
:10396C003F232340034CE7E786204042ECE7C04668
:10397C00FFFF000000001C08F0B5436885B05B6CCD
:10398C0005000021586903AA009304F060FE041E90
:10399C0007DB039B00221979186800F035FB041E25
:1039AC0008DA344A23000121334804F027FA2000B6
:1039BC0005B0F0BD6B685E6C304F380004F085FFCD
:1039CC00002851D0BB68F1680193B368012B13D95F
:1039DC00019B08319B69002B0BD0002238009847C3
:1039EC00041E09DA0121264A234804F000FA254A6C
:1039FC00D8E758246442F5E7019BF1681B68002B5B
:103A0C0035D038009847041EF1DB337E002B06D0EE
:103A1C00280004F07EFC337E1B4A5B0813602800F0
:103A2C0004F077FC8021280003AAFEF7E1FF041EB6
:103A3C00BDD1039B154A80211A4328000392FEF73F
:103A4C00EDFF041EB3D18022C02128005204FEF7E2
:103A5C00E5FF041EABD12800FFF7C8FD041EA6D15C
:103A6C00009B1B699847A2E713246442BFE75824C4
:103A7C00FBE7C0461BA2000820910008F08D00084F
:103A8C0039A2000863A200080065004000001C0871
:103A9C0073B543680C005E6C1A4D280004F015FFDA
:103AAC0000282CD0AB68B268F168DB68012A17D902
:103ABC000831002B07D1144A1448012104F097F95E
:103ACC00052040420BE0280001AA98470028F2DBB1
:103ADC000F4B01981A68002A0CD12060002076BD8B
:103AEC00002B01D10B4AE7E7280001AA98470028D0
:103AFC00EEDAF7E719684900FCF7EEFAEDE7132068
:103B0C00DFE7C046F08D000884A200082091000871
:103B1C0000650040B0A20008024B18684005C00FB9
:103B2C007047C046001002400B8813B50C481B05AB
:103B3C001A0D1B181B0D0C2B0ED80A4C48681319A8
:103B4C001A68024300201A600B881B051B0D1B19F9
:103B5C001B680193019B16BD86204042FBE7C046C3
:103B6C000000C0FC001002400B8809481B051A0D10
:103B7C001B181B0D0C2B07D80020064B4968D318BB
:103B8C001A688A431A60704786204042FBE7C04699
:103B9C000000C0FC0010024070B508881F4B0005E7
:103BAC000D0014001B68000D0C2818D8002801D13A
:103BBC00863870BD02380A2809D8FCF783FA260625
:103BCC002224262608081D1D1D00FA23DB01802255
:103BDC00236029685201914219D20020E9E7104A6A
:103BEC0080180005000D0C2803D80E4AC240D207DD
:103BFC00EDD486204042DCE700F02AF9C3005B08D4
:103C0C00E5E7094BE3E7094BE1E70023DFE7090BA5
:103C1C0018000131FCF760FA2060DEE7300000206C
:103C2C00CC0F0000111100000024F400006CDC0229
:103C3C000C2806D8044BC3400020DB0700D4863880
:103C4C00704786204042FBE73A1F000070B5088899
:103C5C000C000005000DFFF7EBFF00281EDB63686E
:103C6C00FF2B1AD001225802800F013082401F20F6
:103C7C0099B21B0C0340013A9A40094E89190D6800
:103C8C0095430D60636899B21A0E1B0C03409A4061
:103C9C00130089190C6823430B60002070BDC046CB
:103CAC00001002400B880A4A1B05180D9B1810B512
:103CBC001B0D0C2B08D8074BC01803684868984399
:103CCC0043425841013010BDFFF7B2FFF8E7C04640
:103CDC000000C0FC00100240F7B5524F00F0D0F8C5
:103CEC00380004F072FB00F02BFE1F214E4C4F4AA3
:103CFC00A3683D001B051B0F9B009B580B40D84035
:103D0C00136801900B401D41A84202D2280001F01B
:103D1C00EBFFFFF701FF012808D0802322685B002E
:103D2C0013432360FFF7F8FE0128FBD12368404AB8
:103D3C00134023600123226E134323660223226E59
:103D4C001A42FCD080232268DB03134323608023B8
:103D5C001B0422681A42FCD03822A3681340102B93
:103D6C0018D1FFF7D9FE012808D0802322685B0008
:103D7C0013432360FFF7D0FE0128FBD10722A36871
:103D8C009343A3603823A2681A42FCD1A368294A42
:103D9C001340A3602368284A1340802223609204B6
:103DAC0023681342FCD1254B25491868802608400E
:103DBC00802189020143196080211868490201435E
:103DCC00196019681F48760401400A431A601A6882
:103DDC0032431A6000F040F823681E4380232660AB
:103DEC009B0422681A42FCD0A368124A1340A360B9
:103DFC000723A2689A43053B13433822A360A368A8
:103E0C001340102BFBD1019BAB4202D3280001F0D5
:103E1C006BFF0D4B0D4A1F60A36800201340A3607D
:103E2C00FEBDC0460090D003001002405494000820
:103E3C00FFC7FFFFFFF0FFFFFFFFFFFE0C1002406C
:103E4C00FFFFC1FFFFFFFFF130000020FF8FFFFFDE
:103E5C00004870470024F400064B074AD96811400B
:103E6C00064A0A43DA608022D96852050A43DA60AE
:103E7C007047C046001002408C80FF1F02080020D3
:103E8C0080210F4B4905DA6B82B00A43DA63DA6B97
:103E9C000A4080210192019ADA6B49020A43DA63E3
:103EAC004022DB6B0B400093009B064B19680A43C6
:103EBC001A60202219680A431A6002B07047C04683
:103ECC0000100240006C004010B5084804F0FDFCE6
:103EDC00002808D0064C2000FEF7C4F92000FDF79E
:103EEC0027F9002010BD13204042FBE7108F00087B
:103EFC00013F000870B50400074D0A2804D1AB68D7
:103F0C000D2128005B689847AB6828005B68E1B21C
:103F1C009847200070BDC046108F0008F7B5476861
:103F2C001E000369B868009201930C0004F060F85D
:103F3C008023009A05009B039A4215D12000BD688E
:103F4C00FEF780FA85420DD12100280004F050F8CC
:103F5C000400FEF701FA2000FEF74AFA00212000C7
:103F6C00FEF702FA0020FEBD8023009ADB039A4282
:103F7C0024D08023DB049E421CD0C023DB049E4251
:103F8C001AD0802316209B049E4218D102262800AA
:103F9C000D49019AFEF70CFA002812D12000B968DD
:103FAC00FEF738FA28003100FEF7DEF92800FEF79C
:103FBC00BBF9D7E70126EAE70326E8E7862040426B
:103FCC00D1E71020FBE7C046FF85000870B50369F8
:103FDC00040058600B4D280004F077FC00280FD02B
:103FEC00AB6861681B680C31002B04D02800984723
:103FFC00002803DC70BD58204042FBE70020F9E7A5
:10400C001320F9E7F08D0008F7B504000025C9006E
:10401C0043180193019B9C4201D1002035E01F27DE
:10402C001023226817401A4217D1202563681D43BC
:10403C00F821530949000B40E2395209FF390A4073
:10404C001A4300921B09192B20D8114A9B009E5829
:10405C00002E0AD11320404217E0102F03D0112F4D
:10406C00E6D16568E4E73025E2E7300004F02DFC8A
:10407C000028EFD00F2300992A00194030003B0094
:10408C0004F0D0FA08340028C4DAFEBD1620E2E7AA
:10409C009C93000870B50369C0225B680C001B6818
:1040AC00D2000B608021436805001B68C9001B68A7
:1040BC00134002228B4204D01C4A9B185A42534193
:1040CC00DAB2C021802022716B6889011B68002242
:1040DC005B6840010B40834206D002328B4203D016
:1040EC00013A002B00D0023262716B681B681868B1
:1040FC001968C023DB0019400D4B184004F0F1FA8D
:10410C00C022A0716B6892001B689B681340094A1F
:10411C009B185A425341DBB2E3716A681268926889
:10412C00520400D503230020E37170BD00FAFFFF99
:10413C000010001000FDFFFFF0B5436885B000AF24
:10414C0005001E6802697960002939D01068D968A9
:10415C008368DB68002B0DD00C22BA189847041E1C
:10416C000BDA01211A4A1B4803F041FE2000BD4620
:10417C0005B0F0BD58246442F3E73368164A7968F9
:10418C00134033607B685808FB68C018FBF7A4FF2A
:10419C000F2818D86C468AB02B686A4693617B68E6
:1041AC000E49D36180239B0013840D4B5161136125
:1041BC0091210023074810328901FDF7D9FAA54651
:1041CC0016246442D2E780B20024F060CEE7C046E9
:1041DC0067A3000890910008FF7FFFFF95A30008DC
:1041EC0004000001F7B50C00036941685D68237990
:1041FC00012B13D09A1E564272419202009266799C
:10420C00022E0ED8494F7600F75BA679022E0BD002
:10421C00042E34D05E1EB3411B0308E0C022D20032
:10422C00ECE78027BF01F0E75E4273411B07E6799C
:10423C0001960026B446019E012E02D1C026B6007E
:10424C00B4460968A5421DD10C68394E009A344019
:10425C00224313430B604B68364A13403B434B607D
:10426C00436835491A6893680B4061460B43936069
:10427C002968FFF761FF002800DD0020FEBD8023C8
:10428C005B01D4E7C0220E68D2001640009AB242FD
:10429C0005D00E68294A1640009A16430E60C026B7
:1042AC004268B60111684A683240974204D04A68A5
:1042BC00204E32403A434A604268214E11680A68E7
:1042CC003240934204D00A681E4E324013430B60B6
:1042DC00C021436889001A6893680B409C4505D03F
:1042EC00936815490B4061460B43936080224368E9
:1042FC00D2011B689968114206D0019A032A09D091
:10430C009A6811490A4004E00199032902D199687D
:10431C000A439A6021682B689942AED0FFF70CFFD4
:10432C000028ABDB23682B60A7E7C046CC940008C1
:10433C00FFE9FFEFFFCFFFFFFFFCFFFFFFF9FFFFE0
:10434C0000100010FFEFFFEFFFBFFFFFF0B50600FE
:10435C0045680469744885B000AF206004F0B5FA74
:10436C00002806D1714A0121714803F040FD132445
:10437C000BE02068E96883681B68002B07D10121DA
:10438C006C4A6B4803F033FD582464420AE09847AA
:10439C00041E0BD10C230021286AFA1804F057F9DB
:1043AC00041E0BDA2000BD4605B0F0BD0121614AA8
:1043BC005F4803F01CFD002CF4DBEBE7FB680022EC
:1043CC0019791868FFF720FE041EEBDB01227568D3
:1043DC0033692C685B687B6023689343236068684F
:1043EC0004F073FA002801D1534ABCE76868A96845
:1043FC008368DB68002B00D09847EFF31082012311
:10440C0083F310880C2123680B43236082F31088FC
:10441C0030007968FFF7E6FE002801DA1624B4E7CD
:10442C002B7D002B03D00823A2681343A3606B7D64
:10443C00002B04D080226368120213436360AB7DAF
:10444C00002B04D080226368520213436360EB7D1F
:10445C00002B04D0802263689202134363602B7E8E
:10446C00002B49D0354B9C4229D0354B9C4226D051
:10447C00344B9C4223D0344B9C4220D0334B9C4237
:10448C001DD0334B9C421AD0324B9C4217D0324B2E
:10449C009C4214D06C4688B06A4633689361802382
:1044AC009B002E4993832E4B51611361E221002313
:1044BC001F4810324901FDF75BF9A546AEE773685A
:1044CC001A6880239168DB010B43936022686B7E32
:1044DC0024495B050A40134323602268AB7E2249C2
:1044EC001B040A4013432360EB7E002B04D0802274
:1044FC00A36812021343A3602B7F002B04D08023EC
:10450C0022689B0513432360012322681343236015
:10451C0080239B03E2691A42FCD08023DB03E2690F
:10452C001A42FCD000243DE7F08D0008ACA3000833
:10453C0090910008CBA30008EBA3000800380140C1
:10454C000044004000480040004C00400050004037
:10455C00003C0140008000400084004006A400089C
:10456C0003000001FFFF1FFCFFFFE0FFF7B54368EE
:10457C0000901C6803690D005B6801934B790A7904
:10458C009C468879012A16D1022B2ED9C021802372
:10459C000600C9009B01022800D188E0042836D00F
:1045AC000020824237D08020033A4001012A32D8C1
:1045BC0086204042FEBD022A09D1022B23D980213C
:1045CC000600C900022860D080239B01E6E7022B7D
:1045DC001BD9060000210228F6D10021002A54D153
:1045EC0080201100400503221AE0C021C900664654
:1045FC00344B7600F35A06000228CFD1002A56D14C
:10460C008020400507E08021F0E70021EFE7002A39
:10461C00CED180204001802700227F01BB423CD1BB
:10462C006245C5D104F05DF8B042C1D1EB79002BE5
:10463C0019D0012B42D1244B9C4214D0234B9C42C9
:10464C0011D0234B9C420ED0224B9C420BD0224BC0
:10465C009C4208D0214B9C4205D0214B9C4202D05D
:10466C00204B9C42A4D1012623682900B343009817
:10467C002360FFF7B7FD00289ADB236800201E4358
:10468C00019B266006CD06C394E7033A012A00D8A5
:10469C008EE78023002002269B01C0270222BF0147
:1046AC00BB42BDD0013A002BBAD00232B8E7033A74
:1046BC00012A00D87CE702260020ACE7032BBAD0F5
:1046CC0076E7C046CC940008003801400044004016
:1046DC0000480040004C004000500040003C0140AD
:1046EC00008000400084004070B580251049114BBB
:1046FC008C681B680E6810488A686D02002C08D103
:10470C00002A11D11A002E4209D100681818801AFB
:10471C0070BD002A0AD02E4201D1A242F5D90468FC
:10472C00E41804600968F0E71C00F4E71A00F2E7EB
:10473C0010E000E0F8110020F41100200A4A0020DB
:10474C00136A1B021B0A1362C822084B52011A601F
:10475C00074B084A1860084B5A6007229860196882
:10476C000A431A607047C04600ED00E0F8110020C3
:10477C00F4110020FF18000010E000E0F8B5002450
:10478C00FFF7B2FF104E23003168104D0A00286865
:10479C0069688018594128606960C8210C4D3460E3
:1047AC0049012E686F68801BFBF796FCC8214901F4
:1047BC00414323000A0092197B412A606B6002F08E
:1047CC0077FBFDF747FBF8BDF4110020F005002046
:1047DC00E8050020F0B53B4B3B4D87B0002960D07D
:1047EC00421C08D101212A688A432A60FF22120642
:1047FC001A6007B0F0BD1B680393002302930128D5
:10480C0054DCEFF31083059372B6FFF76DFF0022B3
:10481C001100AB6804932D4B1E685F6836184F412E
:10482C003000390018605960294B009601971A60C6
:10483C00284B1C68009B1B1B93423EDBC82702982D
:10484C007F017843244A39008018C018FBF744FCD8
:10485C00009B7843E41A80232018DB00984200D296
:10486C0018001E4B984200D91800164B17491860B7
:10487C000138AB6868600020A860049AD41A9A4288
:10488C001ED2039D621903000C684D6812196B410E
:10489C000A604B60059B002BABD162B6BFF36F8FE8
:1048AC00A7E71B680393431CA7D10D480D4B9842F7
:1048BC0000DD1800431E0293A3E78020C000D4E75C
:1048CC002200E0E7F811002010E000E0F0050020E5
:1048DC00F4110020E8050020FF18000000DCFF00A8
:1048EC003C0A00003D0A000070B5EFF3108572B66B
:1048FC00084A094B14681B68E41AFFF7F5FE001907
:10490C00002D02D162B6BFF36F8FC8214901FBF7AE
:10491C00E3FB70BDF0050020E805002070B5EFF357
:10492C00108572B6054B1C68FFF7DEFE2018002DB3
:10493C0002D162B6BFF36F8F70BDC046F005002088
:10494C00382370B51D4CA2681A4205D123681C4847
:10495C009B045B0FD84070BDA2681A40082A27D070
:10496C00A2681A40102A17D1E368E168DB43E568B6
:10497C004906490F6F322D0A013115409B0709D1A9
:10498C001048FBF7A9FBE1686843490F0131FBF7BD
:10499C00A3FBE0E70A48F4E7A2681A40202A09D0F2
:1049AC00A26800201340182BD5D1FA20C001D2E701
:1049BC000448D0E780200002CDE7C046001002403A
:1049CC000024F40000127A000A2382B00193019BA8
:1049DC00002B07D1054BC000C01800688001800D6A
:1049EC0002B07047019B013BF0E7C04600980040C5
:1049FC000A2382B00193019B002B07D1054BC00009
:104A0C00C01840688001800D02B07047019B013BCB
:104A1C00F0E7C04600980040F0B5040087B000688D
:104A2C0003F038FFCA4B1A6804231A420ED08025B3
:104A3C0080222D0212020540104201D100F032FCFE
:104A4C008022256812026B6C134201D107B0F0BDB5
:104A5C000F270F226B6C1F40134200D0A4E01900EB
:104A6C0001321140134221D12B68BA4A2000134065
:104A7C008022120213432B60237DB74ADB009B1864
:104A8C001B68A26A9B019B0D2363D318A36203F0DE
:104A9C00D0FA637C002BD3D0E26A2168002ACFD1F4
:104AAC008020637C0343CB646274C9E72B6880224B
:104ABC001E001201164013421BD0AA235B00E05CBF
:104ACC00FFF796FF2200A7215532FF328900030021
:104ADC00D06161182800D28801F0D8F821689F4B6A
:104AEC000A6820001A40802313430B60FDF7E6FD93
:104AFC00A6E71B04A4D52A68984B1A4080231343BD
:104B0C002B60AA2325005B00E05C2768FFF770FF91
:104B1C005535FF35031EE8610ED0696900290BD0AD
:104B2C003800EA8801F0B2F86B69EA6931009B1829
:104B3C0020006B6103F068FA23681B681A0500D526
:104B4C007EE7C02292011340934200D178E7824A5B
:104B5C0053689B019B0953602B693E2B17D91F206F
:104B6C005909034058424341C91A536889061943ED
:104B7C0080231B060B4353602168794A0B68134052
:104B8C00C02292015A40774B13430B6058E7002B1D
:104B9C0001D15168ECE7012059080340C91853684A
:104BAC00890619435160E7E7BB00ED1801932B68A8
:104BBC0003936B469B890293039B1B043ED52A6887
:104BCC00664B1A40802313432B6028257D436519BF
:104BDC002B006133FF331A78236804932B00553371
:104BEC00FF33002A69D11878FFF702FF01900028E3
:104BFC0009D02B005B33FF33FC351A88E96E0300B8
:104C0C00049801F043F82823190079436218FC3208
:104C1C00506F019D40195067D06E4019D066106FCF
:104C2C00002803D0926E954200D3FDE07B43E3183D
:104C3C005533FF332000197803F0E6F9039B226803
:104C4C001B0600D4FCE6BB00D218136841490B408C
:104C5C00802109020B43136028231900794366183D
:104C6C00F27D012A00D018E17A1C53430022E3188C
:104C7C005A60731CDB7F934217D0039B5B0600D4F6
:104C8C00E8E0737D934200D0D5E0337D3249DB0000
:104C9C005B181A68920192091A608022337D120601
:104CAC00DB005B1819680A431A6028237B43E3185E
:104CBC00197D200003F0BDF9C2E62A005832FF32FC
:104CCC0012781E78022A00D086E08023029ADB013B
:104CDC001A400592029A3000FC351A4248D0FFF770
:104CEC0073FE2A6F03000190824222D3121A2A67A4
:104CFC0021D0029A52060ED528227A43A218553298
:104D0C00FF32117822688900521810681649084041
:104D1C00164901431160002B00D174E72821794317
:104D2C0061180A005D32FF32FC311288C96E2068AE
:104D3C0067E700222A67049AB60096193268084978
:104D4C000A40802189015140064A0A433260D0E76B
:104D5C00A00001400F8FFF07009800408F0FFF0746
:104D6C008FBFFF07808000008F8FFF07C08000007F
:104D7C00FFF73EFE2A6F0300019082421DD3121AE8
:104D8C002A671CD0029A52060ED428227A43A21803
:104D9C005532FF3211782268890052181068C649C2
:104DAC000840C64901431160002B00D12BE7282194
:104DBC00794361180A005F32B5E7059A2A67049AAD
:104DCC00B60096193268BE490A40802189015140CB
:104DDC00BC4A0A433260D5E7049AB600961931688A
:104DEC00B54A1140B54A0A433260187826688300E8
:104DFC00F3181B685B040ED5FFF7E6FD0190002845
:104E0C0000D100E72B005D33FF33FC351A88E96EC7
:104E1C0003003000F5E6FFF7EBFD0190002800D110
:104E2C00F1E62B005F33EFE75531FF312068611855
:104E3C0000F068FC02E7012B00D036E7337DA24975
:104E4C00DB005B181A6892B21A60337DDB005B18CA
:104E5C001A6829E7737D002B10D1337D9A49DB004A
:104E6C005B185A68920192095A608022337D1206AF
:104E7C00DB005B1859680A435A6016E7012B00D017
:104E8C0013E7337D9049DB005B185A6892B25A6085
:104E9C00337DDB005B185A68EEE780230398039A96
:104EAC005B00357D18401A4219D1874AEB009B18DC
:104EBC001B68F26A9B019B0D9A4202D82900F06292
:104ECC00F7E6D21AF262B26A1431D218B262326BBD
:104EDC006118D3183363206800F014FCB0E5236824
:104EEC00029A039340231A400192029A28001A4214
:104EFC0000D1EDE0FFF768FD8022F36AD201834216
:104F0C0014D80023F362029B13400193737D002B92
:104F1C0052D0012B5FD16C4AED00AD182B689BB2BF
:104F2C002B60337DDB009B181A6853E01B1AF3626D
:104F3C00029B134200D087E028227A43A218150066
:104F4C0038352B78012B00D006E1936A1B1893623D
:104F5C00336B1B183363516B536A99427ED3C91A56
:104F6C00516328227A43A218517D002900D092E087
:104F7C00117D554EC90089190868800180090860A7
:104F8C003E2B75D91F201840454268415909091A12
:104F9C00107D8A068021C0008019056809062A4305
:104FAC000A4302602821794361188A8B9BB2896A73
:104FBC00206800F073FBCFE0434AED00AD182B687E
:104FCC009B019B092B60337DDB009B1880221968A9
:104FDC0012060A431A6028227A43A218517D137DC7
:104FEC00002924D13848DB001B185968890189092C
:104FFC005960137D8022DB001B18596812060A4386
:10500C005A6028257D4365192000297D03F011F88D
:10501C00019B002B00D19FE02A7D236892009B18F6
:10502C001968254A1140294A0A431A6094E001295B
:10503C00E7D12548DB001B18596889B25960137DEC
:10504C00DB001B185A68DBE7039BAD005D192A686F
:10505C00194B1A401D4B13432B606DE7002902D1ED
:10506C00030029707DE700232B7053630B0078E756
:10507C00117D154AC9008918002B05D180220868BA
:10508C00120602430A608DE701205A0818401218D4
:10509C0092060868F5E7012984D1117D0A4DC900F3
:1050AC004919086880B20860127D1904D20052199F
:1050BC0010680143116075E78F8FFF07C0800000F7
:1050CC008FBFFF07808000000098004080C0000068
:1050DC00FFF78EFC8022F36AD20183424CD2019BF3
:1050EC00F362029B1340019328237B43E3185A7D00
:1050FC00002A00D08DE0B149ED006D182A689201AC
:10510C0092092A6080221B7D1206DB005B1819684D
:10511C000A431A6028227A43A218517D137D002974
:10512C0000D084E0A548DB001B1859688901890967
:10513C005960137D8022DB001B18596812060A4344
:10514C005A6028257D4365192000297D02F071FFE6
:10515C00019B002B00D15FE728237B43E3181A7DCA
:10516C00236892009B181A6895490A4030215140D7
:10517C00944A0A431A6063E402991B1A1140F362C1
:10518C000191002BB0D0019B002B08D1039BAD00EB
:10519C005D192A688C4B1A408C4B13432B602822C8
:1051AC007A43A218150038352B78012BD4D1936A89
:1051BC001B189362336B1B183363516B536A994200
:1051CC0042D3C91A516328227A43A218517D00296F
:1051DC0057D1117D794EC900891948688001800921
:1051EC0048603E2B3AD91F20184045426841590966
:1051FC00091A107D8A068021C000801945680906AD
:10520C002A430A434260282179436118CA8B9BB216
:10521C00CDE6012A00D07DE76849ED006D182A68BB
:10522C0092B22A601B7DDB005B181A6871E70129BA
:10523C0087D16248DB001B18596889B25960137D0D
:10524C00DB001B185A687BE7002902D10300297088
:10525C00B9E7002353632B700B00B4E7117D574A59
:10526C00C9008918002B05D1802248681206024318
:10527C004A60C8E701205A0818401218920648687C
:10528C00F5E70129BFD1117D4C4DC900491948687A
:10529C0080B24860127D1904D20052195068014343
:1052AC005160B0E742050DD522684949536C200086
:1052BC000B405364FDF7C0F92900200003F083FA7A
:1052CC00FFF7C4FB420406D522684249536C0B40DD
:1052DC005364FFF7BBFB8022010092011140104286
:1052EC0003D022683C49536CF1E7C20418D52068FE
:1052FC00026C9A43026408202268136C8343136483
:10530C00B3239B00E25C012A03D12000E15403F09B
:10531C00BAFA2000FDF7C4F922683049536CD6E77D
:10532C00020512D508222168086C02430A64216820
:10533C002B484A6C02404A6421680A6C13430B6484
:10534C002000FDF79FF9FFF781FB020621D52168AC
:10535C0024484A6C02404A64B3229200A15C0029A2
:10536C00EED12168086C03430B6408232168086C98
:10537C0003430B640121A1543C22236820005B6D84
:10538C009B081340B4229200A35003F07CFAFFF761
:10539C005DFB830509D522681349536C20000B4033
:1053AC00536403F00FFAFFF751FBC00501D4FFF76C
:1053BC004DFB22680D49536C89E7C04600980040AC
:1053CC00BF8FFF07808000008F8FFF0780C0000019
:1053DC00FFFB0000FFBF0000FFDF0000FFEF00003D
:1053EC00FFF700007FFF0000FFFD0000FFFE000044
:1053FC00F7B50D789F4AAD0045192C680300144091
:10540C00CA780192032A04D81000FAF75BFE05480B
:10541C0046430122019202E0802292001443964AF4
:10542C0014432C600F78954DBE009E1934682C40A7
:10543C003C43144334600E7B0C78002E00D08DE07E
:10544C008F4F4E78E400E419002E30D02668360CCD
:10545C00360426600E78CC88F600F6193768A40856
:10546C00A4003C4334600C78A4001C192668760612
:10547C0004D526682E40834D354325600C78C978B9
:10548C00A400814D1B1901290BD020211C682C4034
:10549C00614008E0C022D20014430022BAE7802207
:1054AC00F9E7196829400A431A600198FEBD66683D
:1054BC00360C36046660724C0E782000F6003619F5
:1054CC00CC887768A408A4003C4374600C78E40092
:1054DC0024186668B601B60966600E690C783E2E13
:1054EC0024D91F2077090640300046424641BF1B95
:1054FC00634EE400A419BE06802760683F0606438D
:10550C003E4366600C78A4001C192668760404D50A
:10551C0026682E405D4D3543256009785C4D002989
:10552C0016D1C0211C682C408901B1E75448E40015
:10553C002418002E03D1802667683606E0E7012088
:10554C0077080640BF196668BF0637436760D9E71E
:10555C0089005B181C6880212C40E5E7CE78A400FC
:10556C001C19022E55D127684A4E2F403E43444FFA
:10557C00266038000C78E400E4192668360C3604F2
:10558C0026600E780C89F600F6193768A408A4007A
:10559C003C4334600C78E40024186668360C3604FE
:1055AC0066600E784C89F60036187768A408A4005B
:1055BC003C43802774600C784878A400324EFF017D
:1055CC001C1900282AD12068384206D027682F40A1
:1055DC00BC4660462D4F074327600C78A4001C196D
:1055EC0027687F0604D527682F40264D3D4325604C
:1055FC00C0250C782648A4001C192768AD0107406B
:10560C007D4015432560097889005B181968314085
:10561C0049E72668204F3E401643A8E720683842E9
:10562C0006D027682F40BC466046184F07432760BA
:10563C000C78A4001C1927687F0604D527682F4016
:10564C00104D3D4325600C78CD78A4001C19012D1C
:10565C000CD025682E40202575401543256009780F
:10566C000B4889005B18196801401CE72568354018
:10567C00F3E7C0468F89FF07808000008F8FFF07FC
:10568C0000980040C0800000BF8FFF0780C0000062
:10569C008FBFFF07808100008F8EFF07F7B50324B3
:1056AC00D81C23401C00651EAC418008001B144C08
:1056BC000D00121904000192002C0FD1002B0CD0FC
:1056CC002500800009184E5DEF00BE4001353443C3
:1056DC00AEB2B342F7D112181460F7BD2E78013C6C
:1056EC00B44667466E7836023E43AF783F04374384
:1056FC00EE78043536063E43019F40C70197DBE741
:10570C0000980040F7B50C0049780600227B01296F
:10571C0000D09BE12069A569854200D90500002ACB
:10572C0020D1ABB2E28861693000FFF7B7FF237874
:10573C00C049DB005B181A682D0492B21A602378FA
:10574C00DB005B181A6815431D602378BA4A9B006E
:10575C00F3181968114030224A40B8490A431A60BC
:10576C000020FEBD2278E7789100236A7118022F81
:10577C0000D040E10A68984200D336E1B04B40209B
:10578C001A40B04B13430B60236A22785B1B2362D5
:10579C009300F3181B6861789C461F00ABB2019311
:1057AC0063460740034200D18DE000295AD1A1493C
:1057BC00D20052180B005168890189095160217877
:1057CC003E2D3FD92138284047427841C9006A090B
:1057DC00C918121A48689206024380200006024338
:1057EC004A6062896169ABB23000FFF757FF6369A9
:1057FC0021695B196361236A00228B4201D95A1B10
:10580C002B0022626278002A4CD12278894FD20078
:10581C00D219116889018909116021783E2B31D97F
:10582C001F20184045426841C9005A09C919121A6B
:10583C000868920602438020000602430A609BB26D
:10584C0022898CE07B4BC900C918002D03D1802222
:10585C0048681206C3E701206A082840121892060D
:10586C004868BCE70129BCD17248D20012185168B3
:10587C0089B2516022782904D20012185068014371
:10588C005160AEE76B4AC9008918002B03D1802206
:10589C0008681206D1E701205A081840121892061F
:1058AC000868CAE7012ACAD122786248D2001218C5
:1058BC00116889B2116022781904D200121810688C
:1058CC0001431160BBE700295ED15A49D20052183E
:1058DC00116889018909116021783E2D44D91F2056
:1058EC0028400300584258416A09121A5148C9000D
:1058FC0009180868920602438020000602430A60D9
:10590C002289ABB230006169FFF7C8FE6369226976
:10591C005B196361236A934201D95F1B2B00627888
:10592C002762002A50D12278424FD200D2195168F6
:10593C0089018909516021783E2B35D91F201840E7
:10594C0045426841C9005A09C919121A4868920699
:10595C0002438020000602434A609BB262893000F9
:10596C006169FFF79BFEF0E6324BC900C918002DA8
:10597C0003D1802208681206C0E701206A0828407B
:10598C00121892060868B9E70129B9D12948D20042
:10599C001218116889B2116022782904D2001218E9
:1059AC00106801431160ABE7224AC9008918002B2B
:1059BC0003D1802248681206CDE701205A0818400E
:1059CC00121892064868C6E7012AC6D122781948EF
:1059DC00D2001218516889B2516022781904D20091
:1059EC001218506801435160B7E71748024013483A
:1059FC0002430A6058E75B1B23620868ABB22904B8
:105A0C000C4DD2005219400609D5506880B2506036
:105A1C002278D20052195068014351609EE71068F9
:105A2C0080B2106022780348D2001218106801432B
:105A3C00116005E700980040BF8FFF0780800000D1
:105A4C008F8FFF07808100008F8EFF07002A22D1E5
:105A5C00A36921698B4201D95A1A0B00A2612278E1
:105A6C00844DD200521951688901890951602278FC
:105A7C003E2B00D8ECE01F2059090340584243410B
:105A8C00C91A8B068021D2005219506809060343AB
:105A9C000B43536075E0E378022B00D08DE00029B6
:105AAC001AD12378734DDB005B191A6892019209A5
:105ABC001A60226923783E2A2DD91F2051090240F1
:105ACC0050424241891A8A068021DB005B19186812
